{
  "contractName": "Exchange",
  "abi": [
    {
      "constant": false,
      "inputs": [],
      "name": "renounceOwnership",
      "outputs": [],
      "payable": false,
      "stateMutability": "nonpayable",
      "type": "function"
    },
    {
      "constant": true,
      "inputs": [],
      "name": "owner",
      "outputs": [
        {
          "name": "",
          "type": "address"
        }
      ],
      "payable": false,
      "stateMutability": "view",
      "type": "function"
    },
    {
      "constant": true,
      "inputs": [],
      "name": "isOwner",
      "outputs": [
        {
          "name": "",
          "type": "bool"
        }
      ],
      "payable": false,
      "stateMutability": "view",
      "type": "function"
    },
    {
      "constant": false,
      "inputs": [
        {
          "name": "newOwner",
          "type": "address"
        }
      ],
      "name": "transferOwnership",
      "outputs": [],
      "payable": false,
      "stateMutability": "nonpayable",
      "type": "function"
    },
    {
      "inputs": [],
      "payable": false,
      "stateMutability": "nonpayable",
      "type": "constructor"
    },
    {
      "anonymous": false,
      "inputs": [
        {
          "indexed": true,
          "name": "_from",
          "type": "address"
        },
        {
          "indexed": false,
          "name": "_contractAddress",
          "type": "address"
        },
        {
          "indexed": false,
          "name": "_tokenId",
          "type": "uint256"
        }
      ],
      "name": "ReceiveToken",
      "type": "event"
    },
    {
      "anonymous": false,
      "inputs": [
        {
          "indexed": true,
          "name": "_owner",
          "type": "address"
        },
        {
          "indexed": false,
          "name": "_contractAddress",
          "type": "address"
        },
        {
          "indexed": false,
          "name": "_tokenId",
          "type": "uint256"
        }
      ],
      "name": "SendBackToken",
      "type": "event"
    },
    {
      "anonymous": false,
      "inputs": [
        {
          "indexed": true,
          "name": "_to",
          "type": "address"
        },
        {
          "indexed": false,
          "name": "_contractAddress",
          "type": "address"
        },
        {
          "indexed": false,
          "name": "_tokenId",
          "type": "uint256"
        }
      ],
      "name": "SendToken",
      "type": "event"
    },
    {
      "anonymous": false,
      "inputs": [
        {
          "indexed": true,
          "name": "_hash",
          "type": "bytes32"
        },
        {
          "indexed": true,
          "name": "_owner",
          "type": "address"
        },
        {
          "indexed": false,
          "name": "_contractAddress",
          "type": "address"
        },
        {
          "indexed": false,
          "name": "_tokenId",
          "type": "uint256"
        }
      ],
      "name": "CreateOrderObj",
      "type": "event"
    },
    {
      "anonymous": false,
      "inputs": [
        {
          "indexed": true,
          "name": "_hash",
          "type": "bytes32"
        },
        {
          "indexed": true,
          "name": "_owner",
          "type": "address"
        },
        {
          "indexed": false,
          "name": "_contractAddress",
          "type": "address"
        },
        {
          "indexed": false,
          "name": "_tokenId",
          "type": "uint256"
        }
      ],
      "name": "DeleteOrderObj",
      "type": "event"
    },
    {
      "anonymous": false,
      "inputs": [
        {
          "indexed": true,
          "name": "_from",
          "type": "address"
        },
        {
          "indexed": true,
          "name": "_orderHash",
          "type": "bytes32"
        },
        {
          "indexed": true,
          "name": "_orderObjHash",
          "type": "bytes32"
        },
        {
          "indexed": false,
          "name": "_contractAddress",
          "type": "address"
        },
        {
          "indexed": false,
          "name": "_tokenId",
          "type": "uint256"
        }
      ],
      "name": "CreateOrder",
      "type": "event"
    },
    {
      "anonymous": false,
      "inputs": [
        {
          "indexed": true,
          "name": "_from",
          "type": "address"
        },
        {
          "indexed": true,
          "name": "_orderHash",
          "type": "bytes32"
        },
        {
          "indexed": true,
          "name": "_matchOrderHash",
          "type": "bytes32"
        },
        {
          "indexed": false,
          "name": "_contractAddress",
          "type": "address"
        },
        {
          "indexed": false,
          "name": "_tokenId",
          "type": "uint256"
        }
      ],
      "name": "CreateMatchOrder",
      "type": "event"
    },
    {
      "anonymous": false,
      "inputs": [
        {
          "indexed": true,
          "name": "_from",
          "type": "address"
        },
        {
          "indexed": true,
          "name": "_orderHash",
          "type": "bytes32"
        },
        {
          "indexed": true,
          "name": "_orderObjHash",
          "type": "bytes32"
        }
      ],
      "name": "DeleteOrder",
      "type": "event"
    },
    {
      "anonymous": false,
      "inputs": [
        {
          "indexed": true,
          "name": "_from",
          "type": "address"
        },
        {
          "indexed": true,
          "name": "_orderHash",
          "type": "bytes32"
        },
        {
          "indexed": true,
          "name": "_matchOrderHash",
          "type": "bytes32"
        }
      ],
      "name": "DeleteMatchOrder",
      "type": "event"
    },
    {
      "anonymous": false,
      "inputs": [
        {
          "indexed": true,
          "name": "previousOwner",
          "type": "address"
        },
        {
          "indexed": true,
          "name": "newOwner",
          "type": "address"
        }
      ],
      "name": "OwnershipTransferred",
      "type": "event"
    },
    {
      "constant": false,
      "inputs": [
        {
          "name": "interface_id",
          "type": "bytes4"
        }
      ],
      "name": "addSupportNFTInterface",
      "outputs": [],
      "payable": false,
      "stateMutability": "nonpayable",
      "type": "function"
    },
    {
      "constant": false,
      "inputs": [
        {
          "name": "_from",
          "type": "address"
        },
        {
          "name": "_tokenId",
          "type": "uint256"
        },
        {
          "name": "_data",
          "type": "bytes"
        }
      ],
      "name": "onERC721Received",
      "outputs": [
        {
          "name": "",
          "type": "bytes4"
        }
      ],
      "payable": false,
      "stateMutability": "nonpayable",
      "type": "function"
    },
    {
      "constant": false,
      "inputs": [
        {
          "name": "_operator",
          "type": "address"
        },
        {
          "name": "_from",
          "type": "address"
        },
        {
          "name": "_tokenId",
          "type": "uint256"
        },
        {
          "name": "data",
          "type": "bytes"
        }
      ],
      "name": "onERC721Received",
      "outputs": [
        {
          "name": "",
          "type": "bytes4"
        }
      ],
      "payable": false,
      "stateMutability": "nonpayable",
      "type": "function"
    },
    {
      "constant": false,
      "inputs": [
        {
          "name": "contractAddress",
          "type": "address"
        },
        {
          "name": "tokenId",
          "type": "uint256"
        }
      ],
      "name": "createOrder",
      "outputs": [],
      "payable": false,
      "stateMutability": "nonpayable",
      "type": "function"
    },
    {
      "constant": false,
      "inputs": [
        {
          "name": "orderHash",
          "type": "bytes32"
        }
      ],
      "name": "deleteOrder",
      "outputs": [],
      "payable": false,
      "stateMutability": "nonpayable",
      "type": "function"
    },
    {
      "constant": false,
      "inputs": [
        {
          "name": "contractAddress",
          "type": "address"
        },
        {
          "name": "tokenId",
          "type": "uint256"
        },
        {
          "name": "orderHash",
          "type": "bytes32"
        }
      ],
      "name": "createMatchOrder",
      "outputs": [],
      "payable": false,
      "stateMutability": "nonpayable",
      "type": "function"
    },
    {
      "constant": false,
      "inputs": [
        {
          "name": "matchOrderHash",
          "type": "bytes32"
        },
        {
          "name": "orderHash",
          "type": "bytes32"
        }
      ],
      "name": "deleteMatchOrder",
      "outputs": [],
      "payable": false,
      "stateMutability": "nonpayable",
      "type": "function"
    },
    {
      "constant": false,
      "inputs": [
        {
          "name": "order",
          "type": "bytes32"
        },
        {
          "name": "matchOrder",
          "type": "bytes32"
        }
      ],
      "name": "exchangeToken",
      "outputs": [],
      "payable": false,
      "stateMutability": "nonpayable",
      "type": "function"
    },
    {
      "constant": false,
      "inputs": [
        {
          "name": "contractAddress",
          "type": "address"
        },
        {
          "name": "tokenId",
          "type": "uint256"
        }
      ],
      "name": "receiveErc721Token",
      "outputs": [],
      "payable": false,
      "stateMutability": "nonpayable",
      "type": "function"
    },
    {
      "constant": false,
      "inputs": [
        {
          "name": "contractAddress",
          "type": "address"
        },
        {
          "name": "tokenId",
          "type": "uint256"
        }
      ],
      "name": "sendBackToken",
      "outputs": [],
      "payable": false,
      "stateMutability": "nonpayable",
      "type": "function"
    },
    {
      "constant": true,
      "inputs": [
        {
          "name": "contractAddress",
          "type": "address"
        },
        {
          "name": "tokenId",
          "type": "uint256"
        }
      ],
      "name": "getTokenOwner",
      "outputs": [
        {
          "name": "",
          "type": "address"
        }
      ],
      "payable": false,
      "stateMutability": "view",
      "type": "function"
    },
    {
      "constant": true,
      "inputs": [
        {
          "name": "ownerAddress",
          "type": "address"
        },
        {
          "name": "contractAddress",
          "type": "address"
        }
      ],
      "name": "getOwnerTokens",
      "outputs": [
        {
          "name": "",
          "type": "uint256[]"
        }
      ],
      "payable": false,
      "stateMutability": "view",
      "type": "function"
    },
    {
      "constant": true,
      "inputs": [
        {
          "name": "contractAddress",
          "type": "address"
        },
        {
          "name": "tokenId",
          "type": "uint256"
        }
      ],
      "name": "getTokenIndex",
      "outputs": [
        {
          "name": "",
          "type": "uint256"
        }
      ],
      "payable": false,
      "stateMutability": "view",
      "type": "function"
    },
    {
      "constant": true,
      "inputs": [
        {
          "name": "ownerAddress",
          "type": "address"
        }
      ],
      "name": "getOwnerOrders",
      "outputs": [
        {
          "name": "",
          "type": "bytes32[]"
        }
      ],
      "payable": false,
      "stateMutability": "view",
      "type": "function"
    },
    {
      "constant": true,
      "inputs": [
        {
          "name": "order",
          "type": "bytes32"
        }
      ],
      "name": "getOrderOwner",
      "outputs": [
        {
          "name": "",
          "type": "address"
        }
      ],
      "payable": false,
      "stateMutability": "view",
      "type": "function"
    },
    {
      "constant": true,
      "inputs": [
        {
          "name": "order",
          "type": "bytes32"
        }
      ],
      "name": "getOrderIndex",
      "outputs": [
        {
          "name": "",
          "type": "uint256"
        }
      ],
      "payable": false,
      "stateMutability": "view",
      "type": "function"
    },
    {
      "constant": true,
      "inputs": [
        {
          "name": "order",
          "type": "bytes32"
        }
      ],
      "name": "getOrderExist",
      "outputs": [
        {
          "name": "",
          "type": "bool"
        }
      ],
      "payable": false,
      "stateMutability": "view",
      "type": "function"
    },
    {
      "constant": true,
      "inputs": [
        {
          "name": "matchOrder",
          "type": "bytes32"
        }
      ],
      "name": "getMatchOrderOwner",
      "outputs": [
        {
          "name": "",
          "type": "address"
        }
      ],
      "payable": false,
      "stateMutability": "view",
      "type": "function"
    },
    {
      "constant": true,
      "inputs": [
        {
          "name": "order",
          "type": "bytes32"
        },
        {
          "name": "matchOrder",
          "type": "bytes32"
        }
      ],
      "name": "getOrderMatchOrderIndex",
      "outputs": [
        {
          "name": "",
          "type": "uint256"
        }
      ],
      "payable": false,
      "stateMutability": "view",
      "type": "function"
    },
    {
      "constant": true,
      "inputs": [
        {
          "name": "order",
          "type": "bytes32"
        }
      ],
      "name": "getOrderMatchOrders",
      "outputs": [
        {
          "name": "",
          "type": "bytes32[]"
        }
      ],
      "payable": false,
      "stateMutability": "view",
      "type": "function"
    },
    {
      "constant": true,
      "inputs": [
        {
          "name": "hashOrder",
          "type": "bytes32"
        }
      ],
      "name": "getHashOrderObj",
      "outputs": [
        {
          "name": "",
          "type": "address"
        },
        {
          "name": "",
          "type": "address"
        },
        {
          "name": "",
          "type": "uint256"
        }
      ],
      "payable": false,
      "stateMutability": "view",
      "type": "function"
    },
    {
      "constant": true,
      "inputs": [
        {
          "name": "orderHash",
          "type": "bytes32"
        }
      ],
      "name": "getOrderHash",
      "outputs": [
        {
          "name": "",
          "type": "bytes32"
        }
      ],
      "payable": false,
      "stateMutability": "view",
      "type": "function"
    }
  ],
  "bytecode": "0x608060405234801561001057600080fd5b50336000806101000a81548173ffffffffffffffffffffffffffffffffffffffff021916908373ffffffffffffffffffffffffffffffffffffffff1602179055506000809054906101000a900473ffffffffffffffffffffffffffffffffffffffff1673ffffffffffffffffffffffffffffffffffffffff16600073ffffffffffffffffffffffffffffffffffffffff167f8be0079c531659141344cd1fd0a4f28419497f9722a3daafe3b4186f6b6457e060405160405180910390a3600b6380ac58cd9080600181540180825580915050906001820390600052602060002090600891828204019190066004029091927c010000000000000000000000000000000000000000000000000000000002909190916101000a81548163ffffffff02191690837c01000000000000000000000000000000000000000000000000000000009004021790555050600b63780e9d639080600181540180825580915050906001820390600052602060002090600891828204019190066004029091927c010000000000000000000000000000000000000000000000000000000002909190916101000a81548163ffffffff02191690837c01000000000000000000000000000000000000000000000000000000009004021790555050600b635b5e139f9080600181540180825580915050906001820390600052602060002090600891828204019190066004029091927c010000000000000000000000000000000000000000000000000000000002909190916101000a81548163ffffffff02191690837c0100000000000000000000000000000000000000000000000000000000900402179055505061438d806102866000396000f3fe608060405234801561001057600080fd5b50600436106101ab576000357c01000000000000000000000000000000000000000000000000000000009004806387a61cbd116100fb578063b47eb4be116100b4578063ec1aed6e1161008e578063ec1aed6e14610a21578063f0b9e5ba14610a8f578063f2fde38b14610b84578063f302653e14610bc8576101ab565b8063b47eb4be14610938578063c52c14f514610985578063e12006de146109d3576101ab565b806387a61cbd146107775780638da5cb5b146107a55780638f32d59b146107ef578063a72c799514610811578063a7e8497f146108aa578063a960b5e6146108f6576101ab565b806346acd237116101685780636c16b545116101425780636c16b5451461063f578063715018a61461068d5780637d186a681461069757806383d84a8d1461073f576101ab565b806346acd2371461051e5780634c530997146105765780634fb564e6146105f9576101ab565b8063039e676a146101b05780630a17b7161461026957806312c86a6d146102ab578063150b7a021461030d5780632df926cc146104225780632fa0bffe146104b0575b600080fd5b610212600480360360408110156101c657600080fd5b81019080803573ffffffffffffffffffffffffffffffffffffffff169060200190929190803573ffffffffffffffffffffffffffffffffffffffff169060200190929190505050610c00565b6040518080602001828103825283818151815260200191508051906020019060200280838360005b8381101561025557808201518184015260208101905061023a565b505050509050019250505060405180910390f35b6102956004803603602081101561027f57600080fd5b8101908080359060200190929190505050610cd5565b6040518082815260200191505060405180910390f35b6102f7600480360360408110156102c157600080fd5b81019080803573ffffffffffffffffffffffffffffffffffffffff16906020019092919080359060200190929190505050610cf2565b6040518082815260200191505060405180910390f35b6103ce6004803603608081101561032357600080fd5b81019080803573ffffffffffffffffffffffffffffffffffffffff169060200190929190803573ffffffffffffffffffffffffffffffffffffffff169060200190929190803590602001909291908035906020019064010000000081111561038a57600080fd5b82018360208201111561039c57600080fd5b803590602001918460018302840111640100000000831117156103be57600080fd5b9091929391929390505050610d4d565b60405180827bffffffffffffffffffffffffffffffffffffffffffffffffffffffff19167bffffffffffffffffffffffffffffffffffffffffffffffffffffffff1916815260200191505060405180910390f35b61046e6004803603604081101561043857600080fd5b81019080803573ffffffffffffffffffffffffffffffffffffffff16906020019092919080359060200190929190505050610d7e565b604051808273ffffffffffffffffffffffffffffffffffffffff1673ffffffffffffffffffffffffffffffffffffffff16815260200191505060405180910390f35b6104dc600480360360208110156104c657600080fd5b8101908080359060200190929190505050610df9565b604051808273ffffffffffffffffffffffffffffffffffffffff1673ffffffffffffffffffffffffffffffffffffffff16815260200191505060405180910390f35b6105746004803603606081101561053457600080fd5b81019080803573ffffffffffffffffffffffffffffffffffffffff1690602001909291908035906020019092919080359060200190929190505050610e36565b005b6105a26004803603602081101561058c57600080fd5b81019080803590602001909291905050506111c1565b6040518080602001828103825283818151815260200191508051906020019060200280838360005b838110156105e55780820151818401526020810190506105ca565b505050509050019250505060405180910390f35b6106256004803603602081101561060f57600080fd5b810190808035906020019092919050505061122c565b604051808215151515815260200191505060405180910390f35b61068b6004803603604081101561065557600080fd5b81019080803573ffffffffffffffffffffffffffffffffffffffff1690602001909291908035906020019092919050505061126e565b005b61069561157e565b005b6106c3600480360360208110156106ad57600080fd5b810190808035906020019092919050505061164e565b604051808473ffffffffffffffffffffffffffffffffffffffff1673ffffffffffffffffffffffffffffffffffffffff1681526020018373ffffffffffffffffffffffffffffffffffffffff1673ffffffffffffffffffffffffffffffffffffffff168152602001828152602001935050505060405180910390f35b6107756004803603604081101561075557600080fd5b81019080803590602001909291908035906020019092919050505061174e565b005b6107a36004803603602081101561078d57600080fd5b8101908080359060200190929190505050611b68565b005b6107ad611c46565b604051808273ffffffffffffffffffffffffffffffffffffffff1673ffffffffffffffffffffffffffffffffffffffff16815260200191505060405180910390f35b6107f7611c6f565b604051808215151515815260200191505060405180910390f35b6108536004803603602081101561082757600080fd5b81019080803573ffffffffffffffffffffffffffffffffffffffff169060200190929190505050611cc6565b6040518080602001828103825283818151815260200191508051906020019060200280838360005b8381101561089657808201518184015260208101905061087b565b505050509050019250505060405180910390f35b6108e0600480360360408110156108c057600080fd5b810190808035906020019092919080359060200190929190505050611d5d565b6040518082815260200191505060405180910390f35b6109226004803603602081101561090c57600080fd5b8101908080359060200190929190505050611d8c565b6040518082815260200191505060405180910390f35b6109836004803603602081101561094e57600080fd5b8101908080357bffffffffffffffffffffffffffffffffffffffffffffffffffffffff19169060200190929190505050611da9565b005b6109d16004803603604081101561099b57600080fd5b81019080803573ffffffffffffffffffffffffffffffffffffffff16906020019092919080359060200190929190505050611e28565b005b610a1f600480360360408110156109e957600080fd5b81019080803573ffffffffffffffffffffffffffffffffffffffff169060200190929190803590602001909291905050506120fe565b005b610a4d60048036036020811015610a3757600080fd5b810190808035906020019092919050505061277b565b604051808273ffffffffffffffffffffffffffffffffffffffff1673ffffffffffffffffffffffffffffffffffffffff16815260200191505060405180910390f35b610b3060048036036060811015610aa557600080fd5b81019080803573ffffffffffffffffffffffffffffffffffffffff1690602001909291908035906020019092919080359060200190640100000000811115610aec57600080fd5b820183602082011115610afe57600080fd5b80359060200191846001830284011164010000000083111715610b2057600080fd5b90919293919293905050506127b8565b60405180827bffffffffffffffffffffffffffffffffffffffffffffffffffffffff19167bffffffffffffffffffffffffffffffffffffffffffffffffffffffff1916815260200191505060405180910390f35b610bc660048036036020811015610b9a57600080fd5b81019080803573ffffffffffffffffffffffffffffffffffffffff1690602001909291905050506127e8565b005b610bfe60048036036040811015610bde57600080fd5b810190808035906020019092919080359060200190929190505050612805565b005b6060600260008473ffffffffffffffffffffffffffffffffffffffff1673ffffffffffffffffffffffffffffffffffffffff16815260200190815260200160002060008373ffffffffffffffffffffffffffffffffffffffff1673ffffffffffffffffffffffffffffffffffffffff168152602001908152602001600020805480602002602001604051908101604052809291908181526020018280548015610cc857602002820191906000526020600020905b815481526020019060010190808311610cb4575b5050505050905092915050565b600060066000838152602001908152602001600020549050919050565b6000600360008473ffffffffffffffffffffffffffffffffffffffff1673ffffffffffffffffffffffffffffffffffffffff168152602001908152602001600020600083815260200190815260200160002054905092915050565b600063150b7a027c010000000000000000000000000000000000000000000000000000000002905095945050505050565b6000600160008473ffffffffffffffffffffffffffffffffffffffff1673ffffffffffffffffffffffffffffffffffffffff168152602001908152602001600020600083815260200190815260200160002060009054906101000a900473ffffffffffffffffffffffffffffffffffffffff16905092915050565b60006005600083815260200190815260200160002060009054906101000a900473ffffffffffffffffffffffffffffffffffffffff169050919050565b82823373ffffffffffffffffffffffffffffffffffffffff16600160008473ffffffffffffffffffffffffffffffffffffffff1673ffffffffffffffffffffffffffffffffffffffff168152602001908152602001600020600083815260200190815260200160002060009054906101000a900473ffffffffffffffffffffffffffffffffffffffff1673ffffffffffffffffffffffffffffffffffffffff1614610f2c576040517f08c379a00000000000000000000000000000000000000000000000000000000081526004018080602001828103825260278152602001806142b56027913960400191505060405180910390fd5b6000858533604051602001808473ffffffffffffffffffffffffffffffffffffffff1673ffffffffffffffffffffffffffffffffffffffff166c010000000000000000000000000281526014018381526020018273ffffffffffffffffffffffffffffffffffffffff1673ffffffffffffffffffffffffffffffffffffffff166c0100000000000000000000000002815260140193505050506040516020818303038152906040528051906020012090506000600d600086815260200190815260200160002054905060011515600a600084815260200190815260200160002060009054906101000a900460ff1615151415611090576040517f08c379a00000000000000000000000000000000000000000000000000000000081526004018080602001828103825260138152602001807f4f7264657220616c72656164792065786973740000000000000000000000000081525060200191505060405180910390fd5b60011515600a600083815260200190815260200160002060009054906101000a900460ff1615151461112a576040517f08c379a00000000000000000000000000000000000000000000000000000000081526004018080602001828103825260178152602001807f54686973206f72646572206973206e6f7420657869737400000000000000000081525060200191505060405180910390fd5b611134828661297d565b81853373ffffffffffffffffffffffffffffffffffffffff167f0d57a0aba1c629a37e46a7bdac3c336323fdfd743bcd6e1504e5d0c1c8934e6c8a8a604051808373ffffffffffffffffffffffffffffffffffffffff1673ffffffffffffffffffffffffffffffffffffffff1681526020018281526020019250505060405180910390a450505050505050565b60606008600083815260200190815260200160002080548060200260200160405190810160405280929190818152602001828054801561122057602002820191906000526020600020905b81548152602001906001019080831161120c575b50505050509050919050565b600080600d6000848152602001908152602001600020549050600a600082815260200190815260200160002060009054906101000a900460ff16915050919050565b81813373ffffffffffffffffffffffffffffffffffffffff16600160008473ffffffffffffffffffffffffffffffffffffffff1673ffffffffffffffffffffffffffffffffffffffff168152602001908152602001600020600083815260200190815260200160002060009054906101000a900473ffffffffffffffffffffffffffffffffffffffff1673ffffffffffffffffffffffffffffffffffffffff1614611364576040517f08c379a00000000000000000000000000000000000000000000000000000000081526004018080602001828103825260278152602001806142b56027913960400191505060405180910390fd5b600084843343604051602001808573ffffffffffffffffffffffffffffffffffffffff1673ffffffffffffffffffffffffffffffffffffffff166c010000000000000000000000000281526014018481526020018373ffffffffffffffffffffffffffffffffffffffff1673ffffffffffffffffffffffffffffffffffffffff166c010000000000000000000000000281526014018281526020019450505050506040516020818303038152906040528051906020012090506000858533604051602001808473ffffffffffffffffffffffffffffffffffffffff1673ffffffffffffffffffffffffffffffffffffffff166c010000000000000000000000000281526014018381526020018273ffffffffffffffffffffffffffffffffffffffff1673ffffffffffffffffffffffffffffffffffffffff166c01000000000000000000000000028152601401935050505060405160208183030381529060405280519060200120905060011515600a600083815260200190815260200160002060009054906101000a900460ff1615151415611569576040517f08c379a00000000000000000000000000000000000000000000000000000000081526004018080602001828103825260138152602001807f4f7264657220616c72656164792065786973740000000000000000000000000081525060200191505060405180910390fd5b61157633838389896129fe565b505050505050565b611586611c6f565b61158f57600080fd5b600073ffffffffffffffffffffffffffffffffffffffff166000809054906101000a900473ffffffffffffffffffffffffffffffffffffffff1673ffffffffffffffffffffffffffffffffffffffff167f8be0079c531659141344cd1fd0a4f28419497f9722a3daafe3b4186f6b6457e060405160405180910390a360008060006101000a81548173ffffffffffffffffffffffffffffffffffffffff021916908373ffffffffffffffffffffffffffffffffffffffff160217905550565b600080600061165b61410a565b600c60008681526020019081526020016000206040518060600160405290816000820160009054906101000a900473ffffffffffffffffffffffffffffffffffffffff1673ffffffffffffffffffffffffffffffffffffffff1673ffffffffffffffffffffffffffffffffffffffff1681526020016001820160009054906101000a900473ffffffffffffffffffffffffffffffffffffffff1673ffffffffffffffffffffffffffffffffffffffff1673ffffffffffffffffffffffffffffffffffffffff1681526020016002820154815250509050806000015181602001518260400151935093509350509193909250565b3373ffffffffffffffffffffffffffffffffffffffff166005600084815260200190815260200160002060009054906101000a900473ffffffffffffffffffffffffffffffffffffffff1673ffffffffffffffffffffffffffffffffffffffff1614611805576040517f08c379a000000000000000000000000000000000000000000000000000000000815260040180806020018281038252602a815260200180614338602a913960400191505060405180910390fd5b6000600d600084815260200190815260200160002054905061182561410a565b600c60008381526020019081526020016000206040518060600160405290816000820160009054906101000a900473ffffffffffffffffffffffffffffffffffffffff1673ffffffffffffffffffffffffffffffffffffffff1673ffffffffffffffffffffffffffffffffffffffff1681526020016001820160009054906101000a900473ffffffffffffffffffffffffffffffffffffffff1673ffffffffffffffffffffffffffffffffffffffff1673ffffffffffffffffffffffffffffffffffffffff168152602001600282015481525050905060006009600086815260200190815260200160002060008581526020019081526020016000205490508360086000878152602001908152602001600020828154811061194357fe5b9060005260206000200154146119c1576040517f08c379a00000000000000000000000000000000000000000000000000000000081526004018080602001828103825260208152602001807f6d61746368206f72646572206973206e6f7420696e2074686973206f7264657281525060200191505060405180910390fd5b60011515600a600086815260200190815260200160002060009054906101000a900460ff1615151415611a3f576040517f08c379a00000000000000000000000000000000000000000000000000000000081526004018080602001828103825260288152602001806142dc6028913960400191505060405180910390fd5b611a4761410a565b600c60008681526020019081526020016000206040518060600160405290816000820160009054906101000a900473ffffffffffffffffffffffffffffffffffffffff1673ffffffffffffffffffffffffffffffffffffffff1673ffffffffffffffffffffffffffffffffffffffff1681526020016001820160009054906101000a900473ffffffffffffffffffffffffffffffffffffffff1673ffffffffffffffffffffffffffffffffffffffff1673ffffffffffffffffffffffffffffffffffffffff1681526020016002820154815250509050611b34816000015184602001518560400151612bb7565b611b4b836000015182602001518360400151612bb7565b611b5586866130a1565b611b603387866131f6565b505050505050565b3373ffffffffffffffffffffffffffffffffffffffff166005600083815260200190815260200160002060009054906101000a900473ffffffffffffffffffffffffffffffffffffffff1673ffffffffffffffffffffffffffffffffffffffff1614611c1f576040517f08c379a000000000000000000000000000000000000000000000000000000000815260040180806020018281038252602b815260200180614222602b913960400191505060405180910390fd5b6000600d6000838152602001908152602001600020549050611c423383836131f6565b5050565b60008060009054906101000a900473ffffffffffffffffffffffffffffffffffffffff16905090565b60008060009054906101000a900473ffffffffffffffffffffffffffffffffffffffff1673ffffffffffffffffffffffffffffffffffffffff163373ffffffffffffffffffffffffffffffffffffffff1614905090565b6060600460008373ffffffffffffffffffffffffffffffffffffffff1673ffffffffffffffffffffffffffffffffffffffff168152602001908152602001600020805480602002602001604051908101604052809291908181526020018280548015611d5157602002820191906000526020600020905b815481526020019060010190808311611d3d575b50505050509050919050565b600060096000848152602001908152602001600020600083815260200190815260200160002054905092915050565b6000600d6000838152602001908152602001600020549050919050565b611db1611c6f565b611dba57600080fd5b600b81908060018154018082558091505090600182039060005260206000209060089182820401919006600402909192909190916101000a81548163ffffffff02191690837c0100000000000000000000000000000000000000000000000000000000900402179055505050565b81813373ffffffffffffffffffffffffffffffffffffffff16600160008473ffffffffffffffffffffffffffffffffffffffff1673ffffffffffffffffffffffffffffffffffffffff168152602001908152602001600020600083815260200190815260200160002060009054906101000a900473ffffffffffffffffffffffffffffffffffffffff1673ffffffffffffffffffffffffffffffffffffffff1614611f1e576040517f08c379a00000000000000000000000000000000000000000000000000000000081526004018080602001828103825260278152602001806142b56027913960400191505060405180910390fd5b6000848433604051602001808473ffffffffffffffffffffffffffffffffffffffff1673ffffffffffffffffffffffffffffffffffffffff166c010000000000000000000000000281526014018381526020018273ffffffffffffffffffffffffffffffffffffffff1673ffffffffffffffffffffffffffffffffffffffff166c01000000000000000000000000028152601401935050505060405160208183030381529060405280519060200120905060011515600a600083815260200190815260200160002060009054906101000a900460ff161515141561206a576040517f08c379a00000000000000000000000000000000000000000000000000000000081526004018080602001828103825260158152602001807f74686973206f72646572207374696c6c206f70656e000000000000000000000081525060200191505060405180910390fd5b612075338686612bb7565b3373ffffffffffffffffffffffffffffffffffffffff167f3a88da1bd81576c94a46372a75ba7622727c0fe2eae361bbf6f49809a863059c8686604051808373ffffffffffffffffffffffffffffffffffffffff1673ffffffffffffffffffffffffffffffffffffffff1681526020018281526020019250505060405180910390a25050505050565b60008090507306012c8cf97bead5deae237070f9587f8e7a266d73ffffffffffffffffffffffffffffffffffffffff168373ffffffffffffffffffffffffffffffffffffffff16146124c85760008090505b600b805490508110156121ef57600115156121d5600b838154811061217157fe5b90600052602060002090600891828204019190066004029054906101000a90047c0100000000000000000000000000000000000000000000000000000000028673ffffffffffffffffffffffffffffffffffffffff1661345390919063ffffffff16565b151514156121e257600191505b8080600101915050612150565b50600115158115151461226a576040517f08c379a000000000000000000000000000000000000000000000000000000000815260040180806020018281038252601e8152602001807f6e6f7420737570706f727465642045726331363520496e74657266616365000081525060200191505060405180910390fd5b6000839050600115158173ffffffffffffffffffffffffffffffffffffffff1663e985e9c533306040518363ffffffff167c0100000000000000000000000000000000000000000000000000000000028152600401808373ffffffffffffffffffffffffffffffffffffffff1673ffffffffffffffffffffffffffffffffffffffff1681526020018273ffffffffffffffffffffffffffffffffffffffff1673ffffffffffffffffffffffffffffffffffffffff1681526020019250505060206040518083038186803b15801561234057600080fd5b505afa158015612354573d6000803e3d6000fd5b505050506040513d602081101561236a57600080fd5b81019080805190602001909291905050501515146123d3576040517f08c379a00000000000000000000000000000000000000000000000000000000081526004018080602001828103825260348152602001806143046034913960400191505060405180910390fd5b8073ffffffffffffffffffffffffffffffffffffffff166323b872dd3330866040518463ffffffff167c0100000000000000000000000000000000000000000000000000000000028152600401808473ffffffffffffffffffffffffffffffffffffffff1673ffffffffffffffffffffffffffffffffffffffff1681526020018373ffffffffffffffffffffffffffffffffffffffff1673ffffffffffffffffffffffffffffffffffffffff1681526020018281526020019350505050600060405180830381600087803b1580156124aa57600080fd5b505af11580156124be573d6000803e3d6000fd5b50505050506126e9565b60008390503073ffffffffffffffffffffffffffffffffffffffff168173ffffffffffffffffffffffffffffffffffffffff1663481af3d3856040518263ffffffff167c01000000000000000000000000000000000000000000000000000000000281526004018082815260200191505060206040518083038186803b15801561255157600080fd5b505afa158015612565573d6000803e3d6000fd5b505050506040513d602081101561257b57600080fd5b810190808051906020019092919050505073ffffffffffffffffffffffffffffffffffffffff16146125f8576040517f08c379a000000000000000000000000000000000000000000000000000000000815260040180806020018281038252603e815260200180614277603e913960400191505060405180910390fd5b8073ffffffffffffffffffffffffffffffffffffffff166323b872dd3330866040518463ffffffff167c0100000000000000000000000000000000000000000000000000000000028152600401808473ffffffffffffffffffffffffffffffffffffffff1673ffffffffffffffffffffffffffffffffffffffff1681526020018373ffffffffffffffffffffffffffffffffffffffff1673ffffffffffffffffffffffffffffffffffffffff1681526020018281526020019350505050600060405180830381600087803b1580156126cf57600080fd5b505af11580156126e3573d6000803e3d6000fd5b50505050505b6126f4338484613478565b3373ffffffffffffffffffffffffffffffffffffffff167f5e3da8fba24af91505c66214c9e629ba712ce2c1b8c318f14f7024fdcba544a88484604051808373ffffffffffffffffffffffffffffffffffffffff1673ffffffffffffffffffffffffffffffffffffffff1681526020018281526020019250505060405180910390a2505050565b60006007600083815260200190815260200160002060009054906101000a900473ffffffffffffffffffffffffffffffffffffffff169050919050565b600063f0b9e5ba7c0100000000000000000000000000000000000000000000000000000000029050949350505050565b6127f0611c6f565b6127f957600080fd5b6128028161389a565b50565b6000600d60008381526020019081526020016000205490503373ffffffffffffffffffffffffffffffffffffffff166007600085815260200190815260200160002060009054906101000a900473ffffffffffffffffffffffffffffffffffffffff1673ffffffffffffffffffffffffffffffffffffffff16146128d4576040517f08c379a000000000000000000000000000000000000000000000000000000000815260040180806020018281038252602a81526020018061424d602a913960400191505060405180910390fd5b60011515600a600083815260200190815260200160002060009054906101000a900460ff1615151461296e576040517f08c379a00000000000000000000000000000000000000000000000000000000081526004018080602001828103825260178152602001807f74686973206f72646572206973206e6f7420657869737400000000000000000081525060200191505060405180910390fd5b61297882846130a1565b505050565b60006129ce600160086000858152602001908152602001600020859080600181540180825580915050906001820390600052602060002001600090919290919091505561399290919063ffffffff16565b90508060096000848152602001908152602001600020600085815260200190815260200160002081905550505050565b6000612a7b6001600460008973ffffffffffffffffffffffffffffffffffffffff1673ffffffffffffffffffffffffffffffffffffffff168152602001908152602001600020879080600181540180825580915050906001820390600052602060002001600090919290919091505561399290919063ffffffff16565b9050856005600087815260200190815260200160002060006101000a81548173ffffffffffffffffffffffffffffffffffffffff021916908373ffffffffffffffffffffffffffffffffffffffff1602179055508060066000878152602001908152602001600020819055506001600a600086815260200190815260200160002060006101000a81548160ff02191690831515021790555083600d60008781526020019081526020016000208190555083853373ffffffffffffffffffffffffffffffffffffffff167f5898d6587948aff37889746632c53670c3b40ee37de81b1252b95fa3603acbf28686604051808373ffffffffffffffffffffffffffffffffffffffff1673ffffffffffffffffffffffffffffffffffffffff1681526020018281526020019250505060405180910390a4505050505050565b7306012c8cf97bead5deae237070f9587f8e7a266d73ffffffffffffffffffffffffffffffffffffffff168273ffffffffffffffffffffffffffffffffffffffff1614612e235760008290503073ffffffffffffffffffffffffffffffffffffffff168173ffffffffffffffffffffffffffffffffffffffff16636352211e846040518263ffffffff167c01000000000000000000000000000000000000000000000000000000000281526004018082815260200191505060206040518083038186803b158015612c8757600080fd5b505afa158015612c9b573d6000803e3d6000fd5b505050506040513d6020811015612cb157600080fd5b810190808051906020019092919050505073ffffffffffffffffffffffffffffffffffffffff1614612d2e576040517f08c379a00000000000000000000000000000000000000000000000000000000081526004018080602001828103825260288152602001806141fa6028913960400191505060405180910390fd5b8073ffffffffffffffffffffffffffffffffffffffff166323b872dd3086856040518463ffffffff167c0100000000000000000000000000000000000000000000000000000000028152600401808473ffffffffffffffffffffffffffffffffffffffff1673ffffffffffffffffffffffffffffffffffffffff1681526020018373ffffffffffffffffffffffffffffffffffffffff1673ffffffffffffffffffffffffffffffffffffffff1681526020018281526020019350505050600060405180830381600087803b158015612e0557600080fd5b505af1158015612e19573d6000803e3d6000fd5b5050505050613010565b60008290503073ffffffffffffffffffffffffffffffffffffffff168173ffffffffffffffffffffffffffffffffffffffff16636352211e846040518263ffffffff167c01000000000000000000000000000000000000000000000000000000000281526004018082815260200191505060206040518083038186803b158015612eac57600080fd5b505afa158015612ec0573d6000803e3d6000fd5b505050506040513d6020811015612ed657600080fd5b810190808051906020019092919050505073ffffffffffffffffffffffffffffffffffffffff1614612f53576040517f08c379a00000000000000000000000000000000000000000000000000000000081526004018080602001828103825260288152602001806141fa6028913960400191505060405180910390fd5b8073ffffffffffffffffffffffffffffffffffffffff1663a9059cbb85846040518363ffffffff167c0100000000000000000000000000000000000000000000000000000000028152600401808373ffffffffffffffffffffffffffffffffffffffff1673ffffffffffffffffffffffffffffffffffffffff16815260200182815260200192505050600060405180830381600087803b158015612ff657600080fd5b505af115801561300a573d6000803e3d6000fd5b50505050505b61301a82826139ac565b8273ffffffffffffffffffffffffffffffffffffffff167ff91179ed40193440f3f022c5755e0fc1c4b1fb78b129dd47b3c465276c070fd38383604051808373ffffffffffffffffffffffffffffffffffffffff1673ffffffffffffffffffffffffffffffffffffffff1681526020018281526020019250505060405180910390a2505050565b600060096000848152602001908152602001600020600083815260200190815260200160002054905060006130f66001600860008781526020019081526020016000208054905061399290919063ffffffff16565b905081811461318457600060086000868152602001908152602001600020828154811061311f57fe5b906000526020600020015490508060086000878152602001908152602001600020848154811061314b57fe5b90600052602060002001819055508260096000878152602001908152602001600020600083815260200190815260200160002081905550505b600860008581526020019081526020016000208054809190600190036131aa9190614157565b5082843373ffffffffffffffffffffffffffffffffffffffff167fe58c318e88738acb18fc5b305437bc9eb7aeef01fd6e00f3fe76242f0df4c30760405160405180910390a450505050565b6000600a600083815260200190815260200160002060006101000a81548160ff0219169083151502179055506005600083815260200190815260200160002060006101000a81549073ffffffffffffffffffffffffffffffffffffffff0219169055600d60008381526020019081526020016000206000905560006006600084815260200190815260200160002054905060006132df6001600460008873ffffffffffffffffffffffffffffffffffffffff1673ffffffffffffffffffffffffffffffffffffffff1681526020019081526020016000208054905061399290919063ffffffff16565b90508181146133b4576000600460008773ffffffffffffffffffffffffffffffffffffffff1673ffffffffffffffffffffffffffffffffffffffff168152602001908152602001600020828154811061333457fe5b9060005260206000200154905080600460008873ffffffffffffffffffffffffffffffffffffffff1673ffffffffffffffffffffffffffffffffffffffff168152602001908152602001600020848154811061338c57fe5b9060005260206000200181905550826006600083815260200190815260200160002081905550505b600460008673ffffffffffffffffffffffffffffffffffffffff1673ffffffffffffffffffffffffffffffffffffffff1681526020019081526020016000208054809190600190036134069190614157565b5082843373ffffffffffffffffffffffffffffffffffffffff167f5ba7b44f807a125375d2d8419b38776950c84f956f2a3c012c2de635c970650460405160405180910390a45050505050565b600061345e83613f78565b8015613470575061346f8383613fe4565b5b905092915050565b6000828285604051602001808473ffffffffffffffffffffffffffffffffffffffff1673ffffffffffffffffffffffffffffffffffffffff166c010000000000000000000000000281526014018381526020018273ffffffffffffffffffffffffffffffffffffffff1673ffffffffffffffffffffffffffffffffffffffff166c010000000000000000000000000281526014019350505050604051602081830303815290604052805190602001209050836007600083815260200190815260200160002060006101000a81548173ffffffffffffffffffffffffffffffffffffffff021916908373ffffffffffffffffffffffffffffffffffffffff16021790555060405180606001604052808573ffffffffffffffffffffffffffffffffffffffff1681526020018473ffffffffffffffffffffffffffffffffffffffff16815260200183815250600c600083815260200190815260200160002060008201518160000160006101000a81548173ffffffffffffffffffffffffffffffffffffffff021916908373ffffffffffffffffffffffffffffffffffffffff16021790555060208201518160010160006101000a81548173ffffffffffffffffffffffffffffffffffffffff021916908373ffffffffffffffffffffffffffffffffffffffff1602179055506040820151816002015590505083600160008573ffffffffffffffffffffffffffffffffffffffff1673ffffffffffffffffffffffffffffffffffffffff168152602001908152602001600020600084815260200190815260200160002060006101000a81548173ffffffffffffffffffffffffffffffffffffffff021916908373ffffffffffffffffffffffffffffffffffffffff16021790555060006137b96001600260008873ffffffffffffffffffffffffffffffffffffffff1673ffffffffffffffffffffffffffffffffffffffff16815260200190815260200160002060008773ffffffffffffffffffffffffffffffffffffffff1673ffffffffffffffffffffffffffffffffffffffff168152602001908152602001600020859080600181540180825580915050906001820390600052602060002001600090919290919091505561399290919063ffffffff16565b905080600360008673ffffffffffffffffffffffffffffffffffffffff1673ffffffffffffffffffffffffffffffffffffffff1681526020019081526020016000206000858152602001908152602001600020819055508473ffffffffffffffffffffffffffffffffffffffff16827fd4f6ac00afb31030127fa7045a43a3979921d10de6444b1c71fdc178871af0348686604051808373ffffffffffffffffffffffffffffffffffffffff1673ffffffffffffffffffffffffffffffffffffffff1681526020018281526020019250505060405180910390a35050505050565b600073ffffffffffffffffffffffffffffffffffffffff168173ffffffffffffffffffffffffffffffffffffffff1614156138d457600080fd5b8073ffffffffffffffffffffffffffffffffffffffff166000809054906101000a900473ffffffffffffffffffffffffffffffffffffffff1673ffffffffffffffffffffffffffffffffffffffff167f8be0079c531659141344cd1fd0a4f28419497f9722a3daafe3b4186f6b6457e060405160405180910390a3806000806101000a81548173ffffffffffffffffffffffffffffffffffffffff021916908373ffffffffffffffffffffffffffffffffffffffff16021790555050565b6000828211156139a157600080fd5b818303905092915050565b6000600160008473ffffffffffffffffffffffffffffffffffffffff1673ffffffffffffffffffffffffffffffffffffffff168152602001908152602001600020600083815260200190815260200160002060009054906101000a900473ffffffffffffffffffffffffffffffffffffffff1690506000838383604051602001808473ffffffffffffffffffffffffffffffffffffffff1673ffffffffffffffffffffffffffffffffffffffff166c010000000000000000000000000281526014018381526020018273ffffffffffffffffffffffffffffffffffffffff1673ffffffffffffffffffffffffffffffffffffffff166c010000000000000000000000000281526014019350505050604051602081830303815290604052805190602001209050600c6000828152602001908152602001600020600080820160006101000a81549073ffffffffffffffffffffffffffffffffffffffff02191690556001820160006101000a81549073ffffffffffffffffffffffffffffffffffffffff0219169055600282016000905550506007600082815260200190815260200160002060006101000a81549073ffffffffffffffffffffffffffffffffffffffff0219169055600160008573ffffffffffffffffffffffffffffffffffffffff1673ffffffffffffffffffffffffffffffffffffffff168152602001908152602001600020600084815260200190815260200160002060006101000a81549073ffffffffffffffffffffffffffffffffffffffff02191690556000600360008673ffffffffffffffffffffffffffffffffffffffff1673ffffffffffffffffffffffffffffffffffffffff16815260200190815260200160002060008581526020019081526020016000205490506000613cd16001600260008773ffffffffffffffffffffffffffffffffffffffff1673ffffffffffffffffffffffffffffffffffffffff16815260200190815260200160002060008973ffffffffffffffffffffffffffffffffffffffff1673ffffffffffffffffffffffffffffffffffffffff1681526020019081526020016000208054905061399290919063ffffffff16565b9050818114613e5d576000600260008673ffffffffffffffffffffffffffffffffffffffff1673ffffffffffffffffffffffffffffffffffffffff16815260200190815260200160002060008873ffffffffffffffffffffffffffffffffffffffff1673ffffffffffffffffffffffffffffffffffffffff1681526020019081526020016000208281548110613d6357fe5b9060005260206000200154905080600260008773ffffffffffffffffffffffffffffffffffffffff1673ffffffffffffffffffffffffffffffffffffffff16815260200190815260200160002060008973ffffffffffffffffffffffffffffffffffffffff1673ffffffffffffffffffffffffffffffffffffffff1681526020019081526020016000208481548110613df857fe5b906000526020600020018190555082600360008973ffffffffffffffffffffffffffffffffffffffff1673ffffffffffffffffffffffffffffffffffffffff168152602001908152602001600020600083815260200190815260200160002081905550505b600260008573ffffffffffffffffffffffffffffffffffffffff1673ffffffffffffffffffffffffffffffffffffffff16815260200190815260200160002060008773ffffffffffffffffffffffffffffffffffffffff1673ffffffffffffffffffffffffffffffffffffffff168152602001908152602001600020805480919060019003613eec9190614183565b508373ffffffffffffffffffffffffffffffffffffffff16837f0f762d10d30113266aedadff34bc8a1d3c2253c78e29a09d1b29e541f48e12c98888604051808373ffffffffffffffffffffffffffffffffffffffff1673ffffffffffffffffffffffffffffffffffffffff1681526020018281526020019250505060405180910390a3505050505050565b6000613fa7826301ffc9a77c010000000000000000000000000000000000000000000000000000000002613fe4565b8015613fdd5750613fdb8263ffffffff7c010000000000000000000000000000000000000000000000000000000002613fe4565b155b9050919050565b6000806000613ff3858561400b565b915091508180156140015750805b9250505092915050565b60008060606301ffc9a77c0100000000000000000000000000000000000000000000000000000000028460405160240180827bffffffffffffffffffffffffffffffffffffffffffffffffffffffff19167bffffffffffffffffffffffffffffffffffffffffffffffffffffffff19168152602001915050604051602081830303815290604052907bffffffffffffffffffffffffffffffffffffffffffffffffffffffff19166020820180517bffffffffffffffffffffffffffffffffffffffffffffffffffffffff838183161783525050505090508060200181516040516000815260208183858b617530fa955080519450505050509250929050565b6040518060600160405280600073ffffffffffffffffffffffffffffffffffffffff168152602001600073ffffffffffffffffffffffffffffffffffffffff168152602001600081525090565b81548183558181111561417e5781836000526020600020918201910161417d91906141af565b5b505050565b8154818355818111156141aa578183600052602060002091820191016141a991906141d4565b5b505050565b6141d191905b808211156141cd5760008160009055506001016141b5565b5090565b90565b6141f691905b808211156141f25760008160009055506001016141da565b5090565b9056fe65786368616e676520636f6e74726163742073686f756c642068617665207468697320746f6b656e74686973206f726465722068617368206e6f742062656c6f6e677320746f207468697320616464726573736d61746368206f7264657220646f656e7327742062656c6f6e6720746f20746869732061646472657373636f6e747261637420646f65736e2774206861766520706f77657220746f20636f6e74726f6c20746869732063727970746f4b69747469657327732069646f726967696e616c206f776e65722073686f756c64206265206d6573736167652073656e64657274686973206d61746368206f72646572277320746f6b656e2068617665206f70656e206f72646572636f6e747261637420646f65736e2774206861766520706f77657220746f20636f6e74726f6c207468697320746f6b656e20696474686973206f7264657220646f65736e27742062656c6f6e677320746f20746869732061646472657373a165627a7a7230582081e96def5ab418dfc9efccdf61799bf8d5f1d4f0a4cc2dda42eb6b0b65d1cdbb0029",
  "source": "pragma solidity 0.5.6;\n\nimport \"./ownable.sol\";\nimport \"./safe-math.sol\";\nimport \"./erc721-token-receiver.sol\";\nimport \"./ERC165Checker.sol\";\n\n/**\n * @dev Interface to Interative with ERC-721 Contract.\n */\ncontract Erc721Interface {\n    function transferFrom(address _from, address _to, uint256 _tokenId) external;\n    function isApprovedForAll(address _owner, address _operator) external view returns (bool);\n    function ownerOf(uint256 _tokenId) external view returns (address _owner);\n}\n\n/**\n * @dev Interface to Interative with CryptoKitties Contract.\n */\ncontract KittyInterface {\n    mapping (uint256 => address) public kittyIndexToApproved;\n    function transfer(address _to, uint256 _tokenId) external;\n    function transferFrom(address _from, address _to, uint256 _tokenId) external;\n    function ownerOf(uint256 _tokenId) external view returns (address _owner);\n}\n\n\ncontract Exchange is Ownable, ERC721TokenReceiver {\n\n    using SafeMath for uint256;\n    using SafeMath for uint;\n    using ERC165Checker for address;\n\n    address constant internal  CryptoKittiesAddress = 0x06012c8cf97BEaD5deAe237070F9587f8E7A266d;\n    \n    bytes4 internal constant ERC721_RECEIVED_THREE_INPUT = 0xf0b9e5ba;\n\n    bytes4 internal constant ERC721_RECEIVED_FOUR_INPUT = 0x150b7a02;\n\n    mapping (address => mapping (uint256 => address)) internal TokenToOwner;\n\n    mapping (address => mapping (address => uint256[])) internal OwnerToTokens;\n\n    mapping (address => mapping(uint256 => uint256)) internal TokenToIndex;\n\n    mapping (address => bytes32[]) internal OwnerToOrders;\n\n    mapping (bytes32 => address) internal OrderToOwner;\n\n    mapping (bytes32 => uint) internal OrderToIndex;\n\n    mapping (bytes32 => address) internal MatchOrderToOwner;\n   \n    mapping (bytes32 => bytes32[]) internal OrderToMatchOrders;\n\n    mapping (bytes32 => mapping(bytes32 => uint)) internal OrderToMatchOrderIndex;\n\n    mapping (bytes32 => bool) internal OrderToExist;\n\n    bytes4[] internal SupportNFTInterface;\n\n    struct OrderObj {\n        // NFT's owner\n        address owner;\n\n        // NFT's contract address\n        address contractAddress;\n        \n        // NFT's id\n        uint256 tokenId;\n    }\n\n    mapping (bytes32 => OrderObj) internal HashToOrderObj;\n\n    mapping(bytes32 => bytes32) internal OrderToHash;\n\n    event ReceiveToken(\n        address indexed _from, \n        address _contractAddress, \n        uint256 _tokenId\n    );\n\n    event SendBackToken(\n        address indexed _owner, \n        address _contractAddress, \n        uint256 _tokenId\n    );\n\n    event SendToken(\n        address indexed _to, \n        address _contractAddress, \n        uint256 _tokenId\n    );\n\n    event CreateOrderObj(\n        bytes32 indexed _hash,\n        address indexed _owner,\n        address _contractAddress,\n        uint256 _tokenId   \n    );\n\n    event DeleteOrderObj(\n        bytes32 indexed _hash,\n        address indexed _owner,\n        address _contractAddress,\n        uint256 _tokenId  \n    );\n\n    event CreateOrder(\n        address indexed _from,\n        bytes32 indexed _orderHash,\n        bytes32 indexed _orderObjHash,\n        address _contractAddress,\n        uint256 _tokenId\n    );\n\n    event CreateMatchOrder(\n        address indexed _from,\n        bytes32 indexed _orderHash,\n        bytes32 indexed _matchOrderHash,\n        address _contractAddress,\n        uint256 _tokenId\n    );\n\n    event DeleteOrder(\n        address indexed _from,\n        bytes32 indexed _orderHash,\n        bytes32 indexed _orderObjHash\n    );\n\n    event DeleteMatchOrder(\n        address indexed _from,\n        bytes32 indexed _orderHash,\n        bytes32 indexed _matchOrderHash\n    );\n\n\n    modifier onlySenderIsOriginalOwner(\n        address contractAddress, \n        uint256 tokenId\n    ) \n    {\n        require(TokenToOwner[contractAddress][tokenId] == msg.sender, \"original owner should be message sender\");\n        _;\n    }\n\n    constructor () public {\n        //nf-token\n        SupportNFTInterface.push(0x80ac58cd);\n\n        //nf-token-metadata\n        SupportNFTInterface.push(0x780e9d63);\n\n        //nf-token-enumerable\n        SupportNFTInterface.push(0x5b5e139f);\n    }\n\n    function addSupportNFTInterface(\n        bytes4 interface_id\n    )\n    external\n    onlyOwner()\n    {\n        SupportNFTInterface.push(interface_id);\n    }\n\n    function onERC721Received(\n        address _from, \n        uint256 _tokenId, \n        bytes calldata _data\n    ) \n    external \n    returns (bytes4)\n    {\n        return ERC721_RECEIVED_THREE_INPUT;\n    }\n\n    function onERC721Received(\n        address _operator,\n        address _from,\n        uint256 _tokenId,\n        bytes calldata data\n    )\n    external\n    returns(bytes4)\n    {\n        return ERC721_RECEIVED_FOUR_INPUT;\n    }\n\n    function createOrder(\n        address contractAddress, \n        uint256 tokenId\n    ) \n    external \n    onlySenderIsOriginalOwner(\n        contractAddress, \n        tokenId\n    ) \n    {\n        bytes32 orderHash = keccak256(abi.encodePacked(contractAddress, tokenId, msg.sender, block.number));\n        bytes32 orderObjHash = keccak256(abi.encodePacked(contractAddress, tokenId, msg.sender));\n        require(OrderToExist[orderObjHash] != true, \"Order already exist\");\n        _addOrder(msg.sender, orderHash, orderObjHash, contractAddress, tokenId);\n    }\n\n    function _addOrder(\n        address sender, \n        bytes32 orderHash,\n        bytes32 orderObjHash,\n        address contractAddress, \n        uint256 tokenId\n    ) \n    internal \n    {\n        uint index = OwnerToOrders[sender].push(orderHash).sub(1);\n        OrderToOwner[orderHash] = sender;\n        OrderToIndex[orderHash] = index;\n        OrderToExist[orderObjHash] = true;\n        OrderToHash[orderHash] = orderObjHash;\n        emit CreateOrder(msg.sender, orderHash, orderObjHash, contractAddress, tokenId);\n    }\n\n    function deleteOrder(\n        bytes32 orderHash\n    )\n    external\n    {\n        require(OrderToOwner[orderHash] == msg.sender, \"this order hash not belongs to this address\");\n        bytes32 orderObjHash = OrderToHash[orderHash];\n        _removeOrder(msg.sender, orderHash, orderObjHash);\n    }\n\n    function _removeOrder(\n        address sender,\n        bytes32 orderHash,\n        bytes32 orderObjHash\n    )\n    internal\n    {\n        OrderToExist[orderObjHash] = false;\n        delete OrderToOwner[orderHash];\n        delete OrderToHash[orderHash];\n        uint256 orderIndex = OrderToIndex[orderHash];\n        uint256 lastOrderIndex = OwnerToOrders[sender].length.sub(1);\n        if (lastOrderIndex != orderIndex){\n            bytes32 lastOwnerOrder = OwnerToOrders[sender][lastOrderIndex];\n            OwnerToOrders[sender][orderIndex] = lastOwnerOrder;\n            OrderToIndex[lastOwnerOrder] = orderIndex;\n        }\n        OwnerToOrders[sender].length--;\n        emit DeleteOrder(msg.sender, orderHash, orderObjHash);\n    }\n\n    function createMatchOrder(\n        address contractAddress,\n        uint256 tokenId, \n        bytes32 orderHash\n    ) \n    external \n    onlySenderIsOriginalOwner(\n        contractAddress, \n        tokenId\n    ) \n    {\n        bytes32 matchOrderHash = keccak256(abi.encodePacked(contractAddress, tokenId, msg.sender));\n        bytes32 orderObjHash = OrderToHash[orderHash];\n        require(OrderToExist[matchOrderHash] != true, \"Order already exist\");\n        require(OrderToExist[orderObjHash] == true, \"This order is not exist\");\n        _addMatchOrder(matchOrderHash, orderHash);\n        emit CreateMatchOrder(msg.sender, orderHash, matchOrderHash, contractAddress, tokenId);\n    }\n\n    function _addMatchOrder(\n        bytes32 matchOrderHash, \n        bytes32 orderHash\n    ) \n    internal \n    {\n        uint inOrderIndex = OrderToMatchOrders[orderHash].push(matchOrderHash).sub(1);\n        OrderToMatchOrderIndex[orderHash][matchOrderHash] = inOrderIndex;\n    }\n\n    function deleteMatchOrder(\n        bytes32 matchOrderHash,\n        bytes32 orderHash\n    )\n    external\n    {\n        bytes32 orderObjHash = OrderToHash[orderHash];\n        require(MatchOrderToOwner[matchOrderHash] == msg.sender, \"match order doens't belong to this address\" );\n        require(OrderToExist[orderObjHash] == true, \"this order is not exist\");\n        _removeMatchOrder(orderHash, matchOrderHash);\n    }\n\n    function _removeMatchOrder(\n        bytes32 orderHash,\n        bytes32 matchOrderHash\n    )\n    internal\n    {\n        uint256 matchOrderIndex = OrderToMatchOrderIndex[orderHash][matchOrderHash];\n        uint256 lastMatchOrderIndex = OrderToMatchOrders[orderHash].length.sub(1);\n        if (lastMatchOrderIndex != matchOrderIndex){\n            bytes32 lastMatchOrder = OrderToMatchOrders[orderHash][lastMatchOrderIndex];\n            OrderToMatchOrders[orderHash][matchOrderIndex] = lastMatchOrder;\n            OrderToMatchOrderIndex[orderHash][lastMatchOrder] = matchOrderIndex;\n        }\n        OrderToMatchOrders[orderHash].length--;\n        emit DeleteMatchOrder(msg.sender, orderHash, matchOrderHash);\n    }\n\n    function exchangeToken(\n        bytes32 order,\n        bytes32 matchOrder\n    ) \n    external \n    {\n        require(OrderToOwner[order] == msg.sender, \"this order doesn't belongs to this address\");\n        bytes32 orderObjHash = OrderToHash[order];\n        OrderObj memory orderObj = HashToOrderObj[orderObjHash];\n        uint index = OrderToMatchOrderIndex[order][matchOrder];\n        require(OrderToMatchOrders[order][index] == matchOrder, \"match order is not in this order\");\n        require(OrderToExist[matchOrder] != true, \"this match order's token have open order\");\n        OrderObj memory matchOrderObj = HashToOrderObj[matchOrder];\n        _sendToken(matchOrderObj.owner, orderObj.contractAddress, orderObj.tokenId);\n        _sendToken(orderObj.owner, matchOrderObj.contractAddress, matchOrderObj.tokenId);\n        _removeMatchOrder(order, matchOrder);\n        _removeOrder(msg.sender, order, orderObjHash);\n    }\n\n    function receiveErc721Token(\n        address contractAddress, \n        uint256 tokenId\n    ) \n    external  \n    {\n        bool checkSupportErc165Interface = false;\n        if(contractAddress != CryptoKittiesAddress){\n            for(uint i = 0; i < SupportNFTInterface.length; i++){\n                if(contractAddress._supportsInterface(SupportNFTInterface[i]) == true){\n                    checkSupportErc165Interface = true;\n                }\n            }\n            require(checkSupportErc165Interface == true, \"not supported Erc165 Interface\");\n            Erc721Interface erc721Contract = Erc721Interface(contractAddress);\n            require(erc721Contract.isApprovedForAll(msg.sender,address(this)) == true, \"contract doesn't have power to control this token id\");\n            erc721Contract.transferFrom(msg.sender, address(this), tokenId);\n        }else {\n            KittyInterface kittyContract = KittyInterface(contractAddress);\n            require(kittyContract.kittyIndexToApproved(tokenId) == address(this), \"contract doesn't have power to control this cryptoKitties's id\");\n            kittyContract.transferFrom(msg.sender, address(this), tokenId);\n        }\n        _addToken(msg.sender, contractAddress, tokenId);\n        emit ReceiveToken(msg.sender, contractAddress, tokenId);\n\n    }\n\n    function _addToken(\n        address sender, \n        address contractAddress, \n        uint256 tokenId\n    ) \n    internal \n    {   \n        bytes32 matchOrderHash = keccak256(abi.encodePacked(contractAddress, tokenId, sender));\n        MatchOrderToOwner[matchOrderHash] = sender;\n        HashToOrderObj[matchOrderHash] = OrderObj(sender,contractAddress,tokenId);\n        TokenToOwner[contractAddress][tokenId] = sender;\n        uint index = OwnerToTokens[sender][contractAddress].push(tokenId).sub(1);\n        TokenToIndex[contractAddress][tokenId] = index;\n        emit CreateOrderObj(matchOrderHash, sender, contractAddress, tokenId);\n    }\n\n    function sendBackToken(\n        address contractAddress, \n        uint256 tokenId\n    ) \n    external \n    onlySenderIsOriginalOwner(\n        contractAddress, \n        tokenId\n    ) \n    {\n        bytes32 orderHash = keccak256(abi.encodePacked(contractAddress, tokenId, msg.sender));\n        require(OrderToExist[orderHash] != true, 'this order still open');\n        _sendToken(msg.sender, contractAddress, tokenId);\n        emit SendBackToken(msg.sender, contractAddress, tokenId);\n    }  \n\n    function _sendToken(\n        address sendAddress,\n        address contractAddress, \n        uint256 tokenId\n    )\n    internal\n    {   \n        if(contractAddress != CryptoKittiesAddress){\n            Erc721Interface erc721Contract = Erc721Interface(contractAddress);\n            require(erc721Contract.ownerOf(tokenId) == address(this), \"exchange contract should have this token\");\n            erc721Contract.transferFrom(address(this), sendAddress, tokenId);\n        }else{\n            KittyInterface kittyContract = KittyInterface(contractAddress);\n            require(kittyContract.ownerOf(tokenId) == address(this), \"exchange contract should have this token\");\n            kittyContract.transfer(sendAddress, tokenId);\n        }\n        _removeToken(contractAddress, tokenId);\n        emit SendToken(sendAddress, contractAddress, tokenId);\n    }\n\n    function _removeToken(\n        address contractAddress, \n        uint256 tokenId\n    ) \n    internal \n    {\n        address owner = TokenToOwner[contractAddress][tokenId];\n        bytes32 orderHash = keccak256(abi.encodePacked(contractAddress, tokenId, owner));\n        delete HashToOrderObj[orderHash];\n        delete MatchOrderToOwner[orderHash];\n        delete TokenToOwner[contractAddress][tokenId];\n        uint256 tokenIndex = TokenToIndex[contractAddress][tokenId];\n        uint256 lastOwnerTokenIndex = OwnerToTokens[owner][contractAddress].length.sub(1);\n        if (lastOwnerTokenIndex != tokenIndex){\n            uint256 lastOwnerToken = OwnerToTokens[owner][contractAddress][lastOwnerTokenIndex];\n            OwnerToTokens[owner][contractAddress][tokenIndex] = lastOwnerToken;\n            TokenToIndex[contractAddress][lastOwnerToken] = tokenIndex;\n        }\n        OwnerToTokens[owner][contractAddress].length--;\n        emit DeleteOrderObj(orderHash, owner, contractAddress, tokenId);\n    }\n\n    function getTokenOwner(\n        address contractAddress, \n        uint256 tokenId\n    ) \n    external \n    view \n    returns (address)\n    {\n        return TokenToOwner[contractAddress][tokenId];\n    }\n    \n    function getOwnerTokens(\n        address ownerAddress, \n        address contractAddress\n    ) \n    external \n    view \n    returns (uint256[] memory)\n    {\n        return OwnerToTokens[ownerAddress][contractAddress];\n    }\n\n    function getTokenIndex(\n        address contractAddress, \n        uint256 tokenId\n    ) \n    external \n    view\n    returns (uint256)\n    {\n        return TokenToIndex[contractAddress][tokenId];\n    }\n\n    function getOwnerOrders(\n        address ownerAddress\n    ) \n    external \n    view \n    returns (bytes32[] memory){\n        return OwnerToOrders[ownerAddress];\n    }\n\n    function getOrderOwner(\n        bytes32 order\n    ) \n    external \n    view \n    returns (address)\n    {\n        return OrderToOwner[order];\n    }\n\n    function getOrderIndex(\n        bytes32 order\n    ) \n    external \n    view \n    returns (uint)\n    {\n        return OrderToIndex[order];\n    }\n\n    function getOrderExist(\n        bytes32 order\n    )\n    external\n    view\n    returns (bool){\n        bytes32 orderObjHash = OrderToHash[order];\n        return OrderToExist[orderObjHash];\n    }\n\n    function getMatchOrderOwner(\n        bytes32 matchOrder\n    ) \n    external \n    view \n    returns (address)\n    {\n        return MatchOrderToOwner[matchOrder];\n    }\n\n    function getOrderMatchOrderIndex(\n        bytes32 order,\n        bytes32 matchOrder\n    ) \n    external \n    view \n    returns (uint)\n    {\n        return OrderToMatchOrderIndex[order][matchOrder];\n    }\n\n    function getOrderMatchOrders(\n        bytes32 order\n    ) \n    external \n    view \n    returns (bytes32[] memory)\n    {\n        return OrderToMatchOrders[order];\n    }\n\n    function getHashOrderObj(\n        bytes32 hashOrder\n    )\n    external\n    view\n    returns(\n        address, \n        address, \n        uint256\n    )\n    {\n        OrderObj memory orderObj = HashToOrderObj[hashOrder];\n        return(\n            orderObj.owner,\n            orderObj.contractAddress,\n            orderObj.tokenId\n        );\n    }\n\n    function getOrderHash(\n        bytes32 orderHash\n    )\n    external\n    view\n    returns(bytes32){\n        return OrderToHash[orderHash];\n    }\n}\n\n",
  "sourcePath": "/Users/ian/Desktop/Decentralized_NFToken_Exchange/erc721-exchange/contracts/exchange/exchange.sol",
  "compiler": {
    "name": "solc",
    "version": "0.5.6+commit.b259423e.Emscripten.clang"
  },
  "schemaVersion": "3.0.2",
  "updatedAt": "2019-05-07T07:27:50.618Z",
  "devdoc": {
    "methods": {
      "isOwner()": {
        "return": "true if `msg.sender` is the owner of the contract."
      },
      "owner()": {
        "return": "the address of the owner."
      },
      "renounceOwnership()": {
        "details": "Allows the current owner to relinquish control of the contract. It will not be possible to call the functions with the `onlyOwner` modifier anymore."
      },
      "transferOwnership(address)": {
        "details": "Allows the current owner to transfer control of the contract to a newOwner.",
        "params": {
          "newOwner": "The address to transfer ownership to."
        }
      }
    }
  },
  "userdoc": {
    "methods": {
      "renounceOwnership()": {
        "notice": "Renouncing ownership will leave the contract without an owner, thereby removing any functionality that is only available to the owner."
      }
    }
  }
}