{
  "contractName": "NFToken",
  "abi": [
    {
      "constant": true,
      "inputs": [
        {
          "name": "_interfaceID",
          "type": "bytes4"
        }
      ],
      "name": "supportsInterface",
      "outputs": [
        {
          "name": "",
          "type": "bool"
        }
      ],
      "payable": false,
      "stateMutability": "view",
      "type": "function"
    },
    {
      "constant": true,
      "inputs": [],
      "name": "owner",
      "outputs": [
        {
          "name": "",
          "type": "address"
        }
      ],
      "payable": false,
      "stateMutability": "view",
      "type": "function"
    },
    {
      "constant": true,
      "inputs": [],
      "name": "tokenCount",
      "outputs": [
        {
          "name": "",
          "type": "uint256"
        }
      ],
      "payable": false,
      "stateMutability": "view",
      "type": "function"
    },
    {
      "inputs": [],
      "payable": false,
      "stateMutability": "nonpayable",
      "type": "constructor"
    },
    {
      "anonymous": false,
      "inputs": [
        {
          "indexed": true,
          "name": "_from",
          "type": "address"
        },
        {
          "indexed": true,
          "name": "_to",
          "type": "address"
        },
        {
          "indexed": true,
          "name": "_tokenId",
          "type": "uint256"
        }
      ],
      "name": "Transfer",
      "type": "event"
    },
    {
      "anonymous": false,
      "inputs": [
        {
          "indexed": true,
          "name": "_owner",
          "type": "address"
        },
        {
          "indexed": true,
          "name": "_approved",
          "type": "address"
        },
        {
          "indexed": true,
          "name": "_tokenId",
          "type": "uint256"
        }
      ],
      "name": "Approval",
      "type": "event"
    },
    {
      "anonymous": false,
      "inputs": [
        {
          "indexed": true,
          "name": "_owner",
          "type": "address"
        },
        {
          "indexed": true,
          "name": "_operator",
          "type": "address"
        },
        {
          "indexed": false,
          "name": "_approved",
          "type": "bool"
        }
      ],
      "name": "ApprovalForAll",
      "type": "event"
    },
    {
      "constant": false,
      "inputs": [
        {
          "name": "_from",
          "type": "address"
        },
        {
          "name": "_to",
          "type": "address"
        },
        {
          "name": "_tokenId",
          "type": "uint256"
        }
      ],
      "name": "safeTransferFrom",
      "outputs": [],
      "payable": false,
      "stateMutability": "nonpayable",
      "type": "function"
    },
    {
      "constant": false,
      "inputs": [
        {
          "name": "_from",
          "type": "address"
        },
        {
          "name": "_to",
          "type": "address"
        },
        {
          "name": "_tokenId",
          "type": "uint256"
        },
        {
          "name": "_data",
          "type": "bytes"
        }
      ],
      "name": "safeTransferFrom",
      "outputs": [],
      "payable": false,
      "stateMutability": "nonpayable",
      "type": "function"
    },
    {
      "constant": false,
      "inputs": [
        {
          "name": "_from",
          "type": "address"
        },
        {
          "name": "_to",
          "type": "address"
        },
        {
          "name": "_tokenId",
          "type": "uint256"
        }
      ],
      "name": "transferFrom",
      "outputs": [],
      "payable": false,
      "stateMutability": "nonpayable",
      "type": "function"
    },
    {
      "constant": false,
      "inputs": [
        {
          "name": "_approved",
          "type": "address"
        },
        {
          "name": "_tokenId",
          "type": "uint256"
        }
      ],
      "name": "approve",
      "outputs": [],
      "payable": false,
      "stateMutability": "nonpayable",
      "type": "function"
    },
    {
      "constant": false,
      "inputs": [
        {
          "name": "_operator",
          "type": "address"
        },
        {
          "name": "_approved",
          "type": "bool"
        }
      ],
      "name": "setApprovalForAll",
      "outputs": [],
      "payable": false,
      "stateMutability": "nonpayable",
      "type": "function"
    },
    {
      "constant": true,
      "inputs": [
        {
          "name": "_owner",
          "type": "address"
        }
      ],
      "name": "balanceOf",
      "outputs": [
        {
          "name": "",
          "type": "uint256"
        }
      ],
      "payable": false,
      "stateMutability": "view",
      "type": "function"
    },
    {
      "constant": true,
      "inputs": [
        {
          "name": "_tokenId",
          "type": "uint256"
        }
      ],
      "name": "ownerOf",
      "outputs": [
        {
          "name": "_owner",
          "type": "address"
        }
      ],
      "payable": false,
      "stateMutability": "view",
      "type": "function"
    },
    {
      "constant": true,
      "inputs": [
        {
          "name": "_tokenId",
          "type": "uint256"
        }
      ],
      "name": "getApproved",
      "outputs": [
        {
          "name": "",
          "type": "address"
        }
      ],
      "payable": false,
      "stateMutability": "view",
      "type": "function"
    },
    {
      "constant": true,
      "inputs": [
        {
          "name": "_owner",
          "type": "address"
        },
        {
          "name": "_operator",
          "type": "address"
        }
      ],
      "name": "isApprovedForAll",
      "outputs": [
        {
          "name": "",
          "type": "bool"
        }
      ],
      "payable": false,
      "stateMutability": "view",
      "type": "function"
    },
    {
      "constant": false,
      "inputs": [],
      "name": "generateToken",
      "outputs": [],
      "payable": false,
      "stateMutability": "nonpayable",
      "type": "function"
    }
  ],
  "bytecode": "0x608060405234801561001057600080fd5b5060016000806301ffc9a77c0100000000000000000000000000000000000000000000000000000000027bffffffffffffffffffffffffffffffffffffffffffffffffffffffff1916815260200190815260200160002060006101000a81548160ff02191690831515021790555060016000806380ac58cd7c0100000000000000000000000000000000000000000000000000000000027bffffffffffffffffffffffffffffffffffffffffffffffffffffffff1916815260200190815260200160002060006101000a81548160ff02191690831515021790555033600660006101000a81548173ffffffffffffffffffffffffffffffffffffffff021916908373ffffffffffffffffffffffffffffffffffffffff1602179055506000600581905550611963806101436000396000f3fe608060405234801561001057600080fd5b50600436106100ec576000357c01000000000000000000000000000000000000000000000000000000009004806370a08231116100a9578063a22cb46511610083578063a22cb4651461041c578063ac1c3d041461046c578063b88d4fde14610476578063e985e9c514610539576100ec565b806370a082311461035c5780638da5cb5b146103b45780639f181b5e146103fe576100ec565b806301ffc9a7146100f1578063081812fc14610156578063095ea7b3146101c457806323b872dd1461021257806342842e0e146102805780636352211e146102ee575b600080fd5b61013c6004803603602081101561010757600080fd5b8101908080357bffffffffffffffffffffffffffffffffffffffffffffffffffffffff191690602001909291905050506105b5565b604051808215151515815260200191505060405180910390f35b6101826004803603602081101561016c57600080fd5b810190808035906020019092919050505061061c565b604051808273ffffffffffffffffffffffffffffffffffffffff1673ffffffffffffffffffffffffffffffffffffffff16815260200191505060405180910390f35b610210600480360360408110156101da57600080fd5b81019080803573ffffffffffffffffffffffffffffffffffffffff169060200190929190803590602001909291905050506106c8565b005b61027e6004803603606081101561022857600080fd5b81019080803573ffffffffffffffffffffffffffffffffffffffff169060200190929190803573ffffffffffffffffffffffffffffffffffffffff1690602001909291908035906020019092919050505061095e565b005b6102ec6004803603606081101561029657600080fd5b81019080803573ffffffffffffffffffffffffffffffffffffffff169060200190929190803573ffffffffffffffffffffffffffffffffffffffff16906020019092919080359060200190929190505050610bf4565b005b61031a6004803603602081101561030457600080fd5b8101908080359060200190929190505050610c14565b604051808273ffffffffffffffffffffffffffffffffffffffff1673ffffffffffffffffffffffffffffffffffffffff16815260200191505060405180910390f35b61039e6004803603602081101561037257600080fd5b81019080803573ffffffffffffffffffffffffffffffffffffffff169060200190929190505050610c8b565b6040518082815260200191505060405180910390f35b6103bc610cd6565b604051808273ffffffffffffffffffffffffffffffffffffffff1673ffffffffffffffffffffffffffffffffffffffff16815260200191505060405180910390f35b610406610cfc565b6040518082815260200191505060405180910390f35b61046a6004803603604081101561043257600080fd5b81019080803573ffffffffffffffffffffffffffffffffffffffff169060200190929190803515159060200190929190505050610d02565b005b610474610e03565b005b6105376004803603608081101561048c57600080fd5b81019080803573ffffffffffffffffffffffffffffffffffffffff169060200190929190803573ffffffffffffffffffffffffffffffffffffffff16906020019092919080359060200190929190803590602001906401000000008111156104f357600080fd5b82018360208201111561050557600080fd5b8035906020019184600183028401116401000000008311171561052757600080fd5b9091929391929390505050610e40565b005b61059b6004803603604081101561054f57600080fd5b81019080803573ffffffffffffffffffffffffffffffffffffffff169060200190929190803573ffffffffffffffffffffffffffffffffffffffff169060200190929190505050610e97565b604051808215151515815260200191505060405180910390f35b6000806000837bffffffffffffffffffffffffffffffffffffffffffffffffffffffff19167bffffffffffffffffffffffffffffffffffffffffffffffffffffffff1916815260200190815260200160002060009054906101000a900460ff169050919050565b600081600073ffffffffffffffffffffffffffffffffffffffff166001600083815260200190815260200160002060009054906101000a900473ffffffffffffffffffffffffffffffffffffffff1673ffffffffffffffffffffffffffffffffffffffff16141561068c57600080fd5b6002600084815260200190815260200160002060009054906101000a900473ffffffffffffffffffffffffffffffffffffffff16915050919050565b8060006001600083815260200190815260200160002060009054906101000a900473ffffffffffffffffffffffffffffffffffffffff1690503373ffffffffffffffffffffffffffffffffffffffff168173ffffffffffffffffffffffffffffffffffffffff1614806107c15750600460008273ffffffffffffffffffffffffffffffffffffffff1673ffffffffffffffffffffffffffffffffffffffff16815260200190815260200160002060003373ffffffffffffffffffffffffffffffffffffffff1673ffffffffffffffffffffffffffffffffffffffff16815260200190815260200160002060009054906101000a900460ff165b6107ca57600080fd5b82600073ffffffffffffffffffffffffffffffffffffffff166001600083815260200190815260200160002060009054906101000a900473ffffffffffffffffffffffffffffffffffffffff1673ffffffffffffffffffffffffffffffffffffffff16141561083857600080fd5b60006001600086815260200190815260200160002060009054906101000a900473ffffffffffffffffffffffffffffffffffffffff1690508073ffffffffffffffffffffffffffffffffffffffff168673ffffffffffffffffffffffffffffffffffffffff1614156108a957600080fd5b856002600087815260200190815260200160002060006101000a81548173ffffffffffffffffffffffffffffffffffffffff021916908373ffffffffffffffffffffffffffffffffffffffff160217905550848673ffffffffffffffffffffffffffffffffffffffff168273ffffffffffffffffffffffffffffffffffffffff167f8c5be1e5ebec7d5bd14f71427d1e84f3dd0314c0f7b2291e5b200ac8c7c3b92560405160405180910390a4505050505050565b8060006001600083815260200190815260200160002060009054906101000a900473ffffffffffffffffffffffffffffffffffffffff1690503373ffffffffffffffffffffffffffffffffffffffff168173ffffffffffffffffffffffffffffffffffffffff161480610a2f57503373ffffffffffffffffffffffffffffffffffffffff166002600084815260200190815260200160002060009054906101000a900473ffffffffffffffffffffffffffffffffffffffff1673ffffffffffffffffffffffffffffffffffffffff16145b80610ac05750600460008273ffffffffffffffffffffffffffffffffffffffff1673ffffffffffffffffffffffffffffffffffffffff16815260200190815260200160002060003373ffffffffffffffffffffffffffffffffffffffff1673ffffffffffffffffffffffffffffffffffffffff16815260200190815260200160002060009054906101000a900460ff165b610ac957600080fd5b82600073ffffffffffffffffffffffffffffffffffffffff166001600083815260200190815260200160002060009054906101000a900473ffffffffffffffffffffffffffffffffffffffff1673ffffffffffffffffffffffffffffffffffffffff161415610b3757600080fd5b60006001600086815260200190815260200160002060009054906101000a900473ffffffffffffffffffffffffffffffffffffffff1690508673ffffffffffffffffffffffffffffffffffffffff168173ffffffffffffffffffffffffffffffffffffffff1614610ba757600080fd5b600073ffffffffffffffffffffffffffffffffffffffff168673ffffffffffffffffffffffffffffffffffffffff161415610be157600080fd5b610beb8686610f2b565b50505050505050565b610c0f83838360405180602001604052806000815250610fe0565b505050565b60006001600083815260200190815260200160002060009054906101000a900473ffffffffffffffffffffffffffffffffffffffff169050600073ffffffffffffffffffffffffffffffffffffffff168173ffffffffffffffffffffffffffffffffffffffff161415610c8657600080fd5b919050565b60008073ffffffffffffffffffffffffffffffffffffffff168273ffffffffffffffffffffffffffffffffffffffff161415610cc657600080fd5b610ccf8261148d565b9050919050565b600660009054906101000a900473ffffffffffffffffffffffffffffffffffffffff1681565b60055481565b80600460003373ffffffffffffffffffffffffffffffffffffffff1673ffffffffffffffffffffffffffffffffffffffff16815260200190815260200160002060008473ffffffffffffffffffffffffffffffffffffffff1673ffffffffffffffffffffffffffffffffffffffff16815260200190815260200160002060006101000a81548160ff0219169083151502179055508173ffffffffffffffffffffffffffffffffffffffff163373ffffffffffffffffffffffffffffffffffffffff167f17307eab39ab6107e8899845ad3d59bd9653f200f220920489ca2b5937696c3183604051808215151515815260200191505060405180910390a35050565b610e2233610e1d60016005546114d690919063ffffffff16565b6114f0565b610e3860016005546114d690919063ffffffff16565b600581905550565b610e9085858585858080601f016020809104026020016040519081016040528093929190818152602001838380828437600081840152601f19601f82011690508083019250505050505050610fe0565b5050505050565b6000600460008473ffffffffffffffffffffffffffffffffffffffff1673ffffffffffffffffffffffffffffffffffffffff16815260200190815260200160002060008373ffffffffffffffffffffffffffffffffffffffff1673ffffffffffffffffffffffffffffffffffffffff16815260200190815260200160002060009054906101000a900460ff16905092915050565b60006001600083815260200190815260200160002060009054906101000a900473ffffffffffffffffffffffffffffffffffffffff169050610f6c82611600565b610f7681836116a1565b610f8083836117cc565b818373ffffffffffffffffffffffffffffffffffffffff168273ffffffffffffffffffffffffffffffffffffffff167fddf252ad1be2c89b69c2b068fc378daa952ba7f163c4a11628f55a4df523b3ef60405160405180910390a4505050565b8160006001600083815260200190815260200160002060009054906101000a900473ffffffffffffffffffffffffffffffffffffffff1690503373ffffffffffffffffffffffffffffffffffffffff168173ffffffffffffffffffffffffffffffffffffffff1614806110b157503373ffffffffffffffffffffffffffffffffffffffff166002600084815260200190815260200160002060009054906101000a900473ffffffffffffffffffffffffffffffffffffffff1673ffffffffffffffffffffffffffffffffffffffff16145b806111425750600460008273ffffffffffffffffffffffffffffffffffffffff1673ffffffffffffffffffffffffffffffffffffffff16815260200190815260200160002060003373ffffffffffffffffffffffffffffffffffffffff1673ffffffffffffffffffffffffffffffffffffffff16815260200190815260200160002060009054906101000a900460ff165b61114b57600080fd5b83600073ffffffffffffffffffffffffffffffffffffffff166001600083815260200190815260200160002060009054906101000a900473ffffffffffffffffffffffffffffffffffffffff1673ffffffffffffffffffffffffffffffffffffffff1614156111b957600080fd5b60006001600087815260200190815260200160002060009054906101000a900473ffffffffffffffffffffffffffffffffffffffff1690508773ffffffffffffffffffffffffffffffffffffffff168173ffffffffffffffffffffffffffffffffffffffff161461122957600080fd5b600073ffffffffffffffffffffffffffffffffffffffff168773ffffffffffffffffffffffffffffffffffffffff16141561126357600080fd5b61126d8787610f2b565b61128c8773ffffffffffffffffffffffffffffffffffffffff16611924565b156114835760008773ffffffffffffffffffffffffffffffffffffffff1663150b7a02338b8a8a6040518563ffffffff167c0100000000000000000000000000000000000000000000000000000000028152600401808573ffffffffffffffffffffffffffffffffffffffff1673ffffffffffffffffffffffffffffffffffffffff1681526020018473ffffffffffffffffffffffffffffffffffffffff1673ffffffffffffffffffffffffffffffffffffffff16815260200183815260200180602001828103825283818151815260200191508051906020019080838360005b8381101561138857808201518184015260208101905061136d565b50505050905090810190601f1680156113b55780820380516001836020036101000a031916815260200191505b5095505050505050602060405180830381600087803b1580156113d757600080fd5b505af11580156113eb573d6000803e3d6000fd5b505050506040513d602081101561140157600080fd5b8101908080519060200190929190505050905063150b7a027c0100000000000000000000000000000000000000000000000000000000027bffffffffffffffffffffffffffffffffffffffffffffffffffffffff1916817bffffffffffffffffffffffffffffffffffffffffffffffffffffffff19161461148157600080fd5b505b5050505050505050565b6000600360008373ffffffffffffffffffffffffffffffffffffffff1673ffffffffffffffffffffffffffffffffffffffff168152602001908152602001600020549050919050565b60008183019050828110156114ea57600080fd5b92915050565b600073ffffffffffffffffffffffffffffffffffffffff168273ffffffffffffffffffffffffffffffffffffffff16141561152a57600080fd5b600073ffffffffffffffffffffffffffffffffffffffff166001600083815260200190815260200160002060009054906101000a900473ffffffffffffffffffffffffffffffffffffffff1673ffffffffffffffffffffffffffffffffffffffff161461159657600080fd5b6115a082826117cc565b808273ffffffffffffffffffffffffffffffffffffffff16600073ffffffffffffffffffffffffffffffffffffffff167fddf252ad1be2c89b69c2b068fc378daa952ba7f163c4a11628f55a4df523b3ef60405160405180910390a45050565b600073ffffffffffffffffffffffffffffffffffffffff166002600083815260200190815260200160002060009054906101000a900473ffffffffffffffffffffffffffffffffffffffff1673ffffffffffffffffffffffffffffffffffffffff161461169e576002600082815260200190815260200160002060006101000a81549073ffffffffffffffffffffffffffffffffffffffff02191690555b50565b8173ffffffffffffffffffffffffffffffffffffffff166001600083815260200190815260200160002060009054906101000a900473ffffffffffffffffffffffffffffffffffffffff1673ffffffffffffffffffffffffffffffffffffffff161461170c57600080fd5b6001600360008473ffffffffffffffffffffffffffffffffffffffff1673ffffffffffffffffffffffffffffffffffffffff1681526020019081526020016000205403600360008473ffffffffffffffffffffffffffffffffffffffff1673ffffffffffffffffffffffffffffffffffffffff168152602001908152602001600020819055506001600082815260200190815260200160002060006101000a81549073ffffffffffffffffffffffffffffffffffffffff02191690555050565b600073ffffffffffffffffffffffffffffffffffffffff166001600083815260200190815260200160002060009054906101000a900473ffffffffffffffffffffffffffffffffffffffff1673ffffffffffffffffffffffffffffffffffffffff161461183857600080fd5b816001600083815260200190815260200160002060006101000a81548173ffffffffffffffffffffffffffffffffffffffff021916908373ffffffffffffffffffffffffffffffffffffffff1602179055506118dd6001600360008573ffffffffffffffffffffffffffffffffffffffff1673ffffffffffffffffffffffffffffffffffffffff168152602001908152602001600020546114d690919063ffffffff16565b600360008473ffffffffffffffffffffffffffffffffffffffff1673ffffffffffffffffffffffffffffffffffffffff168152602001908152602001600020819055505050565b600080823b90506000811191505091905056fea165627a7a723058202942a0d841b397b71b0f9a94876bd7c99d18ef2f44b0381942f6b246e59e83190029",
  "source": "pragma solidity 0.5.6;\n\nimport \"./erc721.sol\";\nimport \"./erc721-token-receiver.sol\";\nimport \"../math/safe-math.sol\";\nimport \"../utils/supports-interface.sol\";\nimport \"../utils/address-utils.sol\";\n\n/**\n * @dev Implementation of ERC-721 non-fungible token standard.\n */\ncontract NFToken is\n  ERC721,\n  SupportsInterface\n{\n  using SafeMath for uint256;\n  using AddressUtils for address;\n\n  /**\n   * @dev Magic value of a smart contract that can recieve NFT.\n   * Equal to: bytes4(keccak256(\"onERC721Received(address,address,uint256,bytes)\")).\n   */\n  bytes4 internal constant MAGIC_ON_ERC721_RECEIVED = 0x150b7a02;\n\n  /**\n   * @dev A mapping from NFT ID to the address that owns it.\n   */\n  mapping (uint256 => address) internal idToOwner;\n\n  /**\n   * @dev Mapping from NFT ID to approved address.\n   */\n  mapping (uint256 => address) internal idToApproval;\n\n   /**\n   * @dev Mapping from owner address to count of his tokens.\n   */\n  mapping (address => uint256) private ownerToNFTokenCount;\n\n  /**\n   * @dev Mapping from owner address to mapping of operator addresses.\n   */\n  mapping (address => mapping (address => bool)) internal ownerToOperators;\n\n\n  uint256 public tokenCount;\n  address public owner;\n\n  /**\n   * @dev Emits when ownership of any NFT changes by any mechanism. This event emits when NFTs are\n   * created (`from` == 0) and destroyed (`to` == 0). Exception: during contract creation, any\n   * number of NFTs may be created and assigned without emitting Transfer. At the time of any\n   * transfer, the approved address for that NFT (if any) is reset to none.\n   * @param _from Sender of NFT (if address is zero address it indicates token creation).\n   * @param _to Receiver of NFT (if address is zero address it indicates token destruction).\n   * @param _tokenId The NFT that got transfered.\n   */\n  event Transfer(\n    address indexed _from,\n    address indexed _to,\n    uint256 indexed _tokenId\n  );\n\n  /**\n   * @dev This emits when the approved address for an NFT is changed or reaffirmed. The zero\n   * address indicates there is no approved address. When a Transfer event emits, this also\n   * indicates that the approved address for that NFT (if any) is reset to none.\n   * @param _owner Owner of NFT.\n   * @param _approved Address that we are approving.\n   * @param _tokenId NFT which we are approving.\n   */\n  event Approval(\n    address indexed _owner,\n    address indexed _approved,\n    uint256 indexed _tokenId\n  );\n\n  /**\n   * @dev This emits when an operator is enabled or disabled for an owner. The operator can manage\n   * all NFTs of the owner.\n   * @param _owner Owner of NFT.\n   * @param _operator Address to which we are setting operator rights.\n   * @param _approved Status of operator rights(true if operator rights are given and false if\n   * revoked).\n   */\n  event ApprovalForAll(\n    address indexed _owner,\n    address indexed _operator,\n    bool _approved\n  );\n\n  /**\n   * @dev Throws if called by any account other than the owner.\n   */\n  modifier onlyOwner() {\n    require(msg.sender == owner);\n    _;\n  }\n\n  /**\n   * @dev Guarantees that the msg.sender is an owner or operator of the given NFT.\n   * @param _tokenId ID of the NFT to validate.\n   */\n  modifier canOperate(\n    uint256 _tokenId\n  ) \n  {\n    address tokenOwner = idToOwner[_tokenId];\n    require(tokenOwner == msg.sender || ownerToOperators[tokenOwner][msg.sender]);\n    _;\n  }\n\n  /**\n   * @dev Guarantees that the msg.sender is allowed to transfer NFT.\n   * @param _tokenId ID of the NFT to transfer.\n   */\n  modifier canTransfer(\n    uint256 _tokenId\n  ) \n  {\n    address tokenOwner = idToOwner[_tokenId];\n    require(\n      tokenOwner == msg.sender\n      || idToApproval[_tokenId] == msg.sender\n      || ownerToOperators[tokenOwner][msg.sender]\n    );\n    _;\n  }\n\n  /**\n   * @dev Guarantees that _tokenId is a valid Token.\n   * @param _tokenId ID of the NFT to validate.\n   */\n  modifier validNFToken(\n    uint256 _tokenId\n  )\n  {\n    require(idToOwner[_tokenId] != address(0));\n    _;\n  }\n\n  /**\n   * @dev Contract constructor.\n   */\n  constructor()\n    public\n  {\n    supportedInterfaces[0x80ac58cd] = true; // ERC721\n    owner = msg.sender;\n    tokenCount = 0;\n  }\n\n  /**\n   * @dev Transfers the ownership of an NFT from one address to another address. This function can\n   * be changed to payable.\n   * @notice Throws unless `msg.sender` is the current owner, an authorized operator, or the\n   * approved address for this NFT. Throws if `_from` is not the current owner. Throws if `_to` is\n   * the zero address. Throws if `_tokenId` is not a valid NFT. When transfer is complete, this\n   * function checks if `_to` is a smart contract (code size > 0). If so, it calls \n   * `onERC721Received` on `_to` and throws if the return value is not \n   * `bytes4(keccak256(\"onERC721Received(address,uint256,bytes)\"))`.\n   * @param _from The current owner of the NFT.\n   * @param _to The new owner.\n   * @param _tokenId The NFT to transfer.\n   * @param _data Additional data with no specified format, sent in call to `_to`.\n   */\n  function safeTransferFrom(\n    address _from,\n    address _to,\n    uint256 _tokenId,\n    bytes calldata _data\n  )\n    external\n  {\n    _safeTransferFrom(_from, _to, _tokenId, _data);\n  }\n\n  /**\n   * @dev Transfers the ownership of an NFT from one address to another address. This function can\n   * be changed to payable.\n   * @notice This works identically to the other function with an extra data parameter, except this\n   * function just sets data to \"\"\n   * @param _from The current owner of the NFT.\n   * @param _to The new owner.\n   * @param _tokenId The NFT to transfer.\n   */\n  function safeTransferFrom(\n    address _from,\n    address _to,\n    uint256 _tokenId\n  )\n    external\n  {\n    _safeTransferFrom(_from, _to, _tokenId, \"\");\n  }\n\n  /**\n   * @dev Throws unless `msg.sender` is the current owner, an authorized operator, or the approved\n   * address for this NFT. Throws if `_from` is not the current owner. Throws if `_to` is the zero\n   * address. Throws if `_tokenId` is not a valid NFT. This function can be changed to payable.\n   * @notice The caller is responsible to confirm that `_to` is capable of receiving NFTs or else\n   * they maybe be permanently lost.\n   * @param _from The current owner of the NFT.\n   * @param _to The new owner.\n   * @param _tokenId The NFT to transfer.\n   */\n  function transferFrom(\n    address _from,\n    address _to,\n    uint256 _tokenId\n  )\n    external\n    canTransfer(_tokenId)\n    validNFToken(_tokenId)\n  {\n    address tokenOwner = idToOwner[_tokenId];\n    require(tokenOwner == _from);\n    require(_to != address(0));\n\n    _transfer(_to, _tokenId);\n  }\n\n  /**\n   * @dev Set or reaffirm the approved address for an NFT. This function can be changed to payable.\n   * @notice The zero address indicates there is no approved address. Throws unless `msg.sender` is\n   * the current NFT owner, or an authorized operator of the current owner.\n   * @param _approved Address to be approved for the given NFT ID.\n   * @param _tokenId ID of the token to be approved.\n   */\n  function approve(\n    address _approved,\n    uint256 _tokenId\n  )\n    external\n    canOperate(_tokenId)\n    validNFToken(_tokenId)\n  {\n    address tokenOwner = idToOwner[_tokenId];\n    require(_approved != tokenOwner);\n\n    idToApproval[_tokenId] = _approved;\n    emit Approval(tokenOwner, _approved, _tokenId);\n  }\n\n  /**\n   * @dev Enables or disables approval for a third party (\"operator\") to manage all of\n   * `msg.sender`'s assets. It also emits the ApprovalForAll event.\n   * @notice This works even if sender doesn't own any tokens at the time.\n   * @param _operator Address to add to the set of authorized operators.\n   * @param _approved True if the operators is approved, false to revoke approval.\n   */\n  function setApprovalForAll(\n    address _operator,\n    bool _approved\n  )\n    external\n  {\n    ownerToOperators[msg.sender][_operator] = _approved;\n    emit ApprovalForAll(msg.sender, _operator, _approved);\n  }\n\n  /**\n   * @dev Returns the number of NFTs owned by `_owner`. NFTs assigned to the zero address are\n   * considered invalid, and this function throws for queries about the zero address.\n   * @param _owner Address for whom to query the balance.\n   * @return Balance of _owner.\n   */\n  function balanceOf(\n    address _owner\n  )\n    external\n    view\n    returns (uint256)\n  {\n    require(_owner != address(0));\n    return _getOwnerNFTCount(_owner);\n  }\n\n  /**\n   * @dev Returns the address of the owner of the NFT. NFTs assigned to zero address are considered\n   * invalid, and queries about them do throw.\n   * @param _tokenId The identifier for an NFT.\n   * @return Address of _tokenId owner.\n   */\n  function ownerOf(\n    uint256 _tokenId\n  )\n    external\n    view\n    returns (address _owner)\n  {\n    _owner = idToOwner[_tokenId];\n    require(_owner != address(0));\n  }\n\n  /**\n   * @dev Get the approved address for a single NFT.\n   * @notice Throws if `_tokenId` is not a valid NFT.\n   * @param _tokenId ID of the NFT to query the approval of.\n   * @return Address that _tokenId is approved for. \n   */\n  function getApproved(\n    uint256 _tokenId\n  )\n    external\n    view\n    validNFToken(_tokenId)\n    returns (address)\n  {\n    return idToApproval[_tokenId];\n  }\n\n  /**\n   * @dev Checks if `_operator` is an approved operator for `_owner`.\n   * @param _owner The address that owns the NFTs.\n   * @param _operator The address that acts on behalf of the owner.\n   * @return True if approved for all, false otherwise.\n   */\n  function isApprovedForAll(\n    address _owner,\n    address _operator\n  )\n    external\n    view\n    returns (bool)\n  {\n    return ownerToOperators[_owner][_operator];\n  }\n\n  /**\n   * @dev Actually preforms the transfer.\n   * @notice Does NO checks.\n   * @param _to Address of a new owner.\n   * @param _tokenId The NFT that is being transferred.\n   */\n  function _transfer(\n    address _to,\n    uint256 _tokenId\n  )\n    internal\n  {\n    address from = idToOwner[_tokenId];\n    _clearApproval(_tokenId);\n\n    _removeNFToken(from, _tokenId);\n    _addNFToken(_to, _tokenId);\n\n    emit Transfer(from, _to, _tokenId);\n  }\n   \n  /**\n   * @dev Mints a new NFT.\n   * @notice This is an internal function which should be called from user-implemented external\n   * mint function. Its purpose is to show and properly initialize data structures when using this\n   * implementation.\n   * @param _to The address that will own the minted NFT.\n   * @param _tokenId of the NFT to be minted by the msg.sender.\n   */\n  function _mint(\n    address _to,\n    uint256 _tokenId\n  )\n    internal\n  {\n    require(_to != address(0));\n    require(idToOwner[_tokenId] == address(0));\n\n    _addNFToken(_to, _tokenId);\n\n    emit Transfer(address(0), _to, _tokenId);\n  }\n\n  function generateToken(\n  )\n    external\n  {\n    _mint(msg.sender, tokenCount.add(1));\n    tokenCount = tokenCount.add(1);\n  }\n\n  /**\n   * @dev Burns a NFT.\n   * @notice This is an internal function which should be called from user-implemented external burn\n   * function. Its purpose is to show and properly initialize data structures when using this\n   * implementation. Also, note that this burn implementation allows the minter to re-mint a burned\n   * NFT.\n   * @param _tokenId ID of the NFT to be burned.\n   */\n  function _burn(\n    uint256 _tokenId\n  )\n    internal\n    validNFToken(_tokenId)\n  {\n    address tokenOwner = idToOwner[_tokenId];\n    _clearApproval(_tokenId);\n    _removeNFToken(tokenOwner, _tokenId);\n    emit Transfer(tokenOwner, address(0), _tokenId);\n  }\n\n  /**\n   * @dev Removes a NFT from owner.\n   * @notice Use and override this function with caution. Wrong usage can have serious consequences.\n   * @param _from Address from wich we want to remove the NFT.\n   * @param _tokenId Which NFT we want to remove.\n   */\n  function _removeNFToken(\n    address _from,\n    uint256 _tokenId\n  )\n    internal\n  {\n    require(idToOwner[_tokenId] == _from);\n    ownerToNFTokenCount[_from] = ownerToNFTokenCount[_from] - 1;\n    delete idToOwner[_tokenId];\n  }\n\n  /**\n   * @dev Assignes a new NFT to owner.\n   * @notice Use and override this function with caution. Wrong usage can have serious consequences.\n   * @param _to Address to wich we want to add the NFT.\n   * @param _tokenId Which NFT we want to add.\n   */\n  function _addNFToken(\n    address _to,\n    uint256 _tokenId\n  )\n    internal\n  {\n    require(idToOwner[_tokenId] == address(0));\n\n    idToOwner[_tokenId] = _to;\n    ownerToNFTokenCount[_to] = ownerToNFTokenCount[_to].add(1);\n  }\n\n  /**\n   *@dev Helper function that gets NFT count of owner. This is needed for overriding in enumerable\n   * extension to remove double storage (gas optimization) of owner nft count.\n   * @param _owner Address for whom to query the count.\n   * @return Number of _owner NFTs.\n   */\n  function _getOwnerNFTCount(\n    address _owner\n  )\n    internal\n    view\n    returns (uint256)\n  {\n    return ownerToNFTokenCount[_owner];\n  }\n\n  /**\n   * @dev Actually perform the safeTransferFrom.\n   * @param _from The current owner of the NFT.\n   * @param _to The new owner.\n   * @param _tokenId The NFT to transfer.\n   * @param _data Additional data with no specified format, sent in call to `_to`.\n   */\n  function _safeTransferFrom(\n    address _from,\n    address _to,\n    uint256 _tokenId,\n    bytes memory _data\n  )\n    private\n    canTransfer(_tokenId)\n    validNFToken(_tokenId)\n  {\n    address tokenOwner = idToOwner[_tokenId];\n    require(tokenOwner == _from);\n    require(_to != address(0));\n\n    _transfer(_to, _tokenId);\n\n    if (_to.isContract()) \n    {\n      bytes4 retval = ERC721TokenReceiver(_to).onERC721Received(msg.sender, _from, _tokenId, _data);\n      require(retval == MAGIC_ON_ERC721_RECEIVED);\n    }\n  }\n\n  /** \n   * @dev Clears the current approval of a given NFT ID.\n   * @param _tokenId ID of the NFT to be transferred.\n   */\n  function _clearApproval(\n    uint256 _tokenId\n  )\n    private\n  {\n    if (idToApproval[_tokenId] != address(0))\n    {\n      delete idToApproval[_tokenId];\n    }\n  }\n\n}\n",
  "sourcePath": "/Users/ian/Desktop/Decentralized_NFToken_Exchange/erc721-exchange/contracts/erc721/tokens/nf-token.sol",
  "compiler": {
    "name": "solc",
    "version": "0.5.6+commit.b259423e.Emscripten.clang"
  },
  "schemaVersion": "3.0.2",
  "updatedAt": "2019-05-07T07:27:50.473Z",
  "devdoc": {
    "details": "Implementation of ERC-721 non-fungible token standard.",
    "methods": {
      "approve(address,uint256)": {
        "details": "Set or reaffirm the approved address for an NFT. This function can be changed to payable.",
        "params": {
          "_approved": "Address to be approved for the given NFT ID.",
          "_tokenId": "ID of the token to be approved."
        }
      },
      "balanceOf(address)": {
        "details": "Returns the number of NFTs owned by `_owner`. NFTs assigned to the zero address are considered invalid, and this function throws for queries about the zero address.",
        "params": {
          "_owner": "Address for whom to query the balance."
        },
        "return": "Balance of _owner."
      },
      "constructor": {
        "details": "Contract constructor."
      },
      "getApproved(uint256)": {
        "details": "Get the approved address for a single NFT.",
        "params": {
          "_tokenId": "ID of the NFT to query the approval of."
        },
        "return": "Address that _tokenId is approved for. "
      },
      "isApprovedForAll(address,address)": {
        "details": "Checks if `_operator` is an approved operator for `_owner`.",
        "params": {
          "_operator": "The address that acts on behalf of the owner.",
          "_owner": "The address that owns the NFTs."
        },
        "return": "True if approved for all, false otherwise."
      },
      "ownerOf(uint256)": {
        "details": "Returns the address of the owner of the NFT. NFTs assigned to zero address are considered invalid, and queries about them do throw.",
        "params": {
          "_tokenId": "The identifier for an NFT."
        },
        "return": "Address of _tokenId owner."
      },
      "safeTransferFrom(address,address,uint256)": {
        "details": "Transfers the ownership of an NFT from one address to another address. This function can be changed to payable.",
        "params": {
          "_from": "The current owner of the NFT.",
          "_to": "The new owner.",
          "_tokenId": "The NFT to transfer."
        }
      },
      "safeTransferFrom(address,address,uint256,bytes)": {
        "details": "Transfers the ownership of an NFT from one address to another address. This function can be changed to payable.",
        "params": {
          "_data": "Additional data with no specified format, sent in call to `_to`.",
          "_from": "The current owner of the NFT.",
          "_to": "The new owner.",
          "_tokenId": "The NFT to transfer."
        }
      },
      "setApprovalForAll(address,bool)": {
        "details": "Enables or disables approval for a third party (\"operator\") to manage all of `msg.sender`'s assets. It also emits the ApprovalForAll event.",
        "params": {
          "_approved": "True if the operators is approved, false to revoke approval.",
          "_operator": "Address to add to the set of authorized operators."
        }
      },
      "supportsInterface(bytes4)": {
        "details": "Function to check which interfaces are suported by this contract.",
        "params": {
          "_interfaceID": "Id of the interface."
        },
        "return": "True if _interfaceID is supported, false otherwise."
      },
      "transferFrom(address,address,uint256)": {
        "details": "Throws unless `msg.sender` is the current owner, an authorized operator, or the approved address for this NFT. Throws if `_from` is not the current owner. Throws if `_to` is the zero address. Throws if `_tokenId` is not a valid NFT. This function can be changed to payable.",
        "params": {
          "_from": "The current owner of the NFT.",
          "_to": "The new owner.",
          "_tokenId": "The NFT to transfer."
        }
      }
    }
  },
  "userdoc": {
    "methods": {
      "approve(address,uint256)": {
        "notice": "The zero address indicates there is no approved address. Throws unless `msg.sender` is the current NFT owner, or an authorized operator of the current owner."
      },
      "getApproved(uint256)": {
        "notice": "Throws if `_tokenId` is not a valid NFT."
      },
      "safeTransferFrom(address,address,uint256)": {
        "notice": "This works identically to the other function with an extra data parameter, except this function just sets data to \"\""
      },
      "safeTransferFrom(address,address,uint256,bytes)": {
        "notice": "Throws unless `msg.sender` is the current owner, an authorized operator, or the approved address for this NFT. Throws if `_from` is not the current owner. Throws if `_to` is the zero address. Throws if `_tokenId` is not a valid NFT. When transfer is complete, this function checks if `_to` is a smart contract (code size > 0). If so, it calls  `onERC721Received` on `_to` and throws if the return value is not  `bytes4(keccak256(\"onERC721Received(address,uint256,bytes)\"))`."
      },
      "setApprovalForAll(address,bool)": {
        "notice": "This works even if sender doesn't own any tokens at the time."
      },
      "transferFrom(address,address,uint256)": {
        "notice": "The caller is responsible to confirm that `_to` is capable of receiving NFTs or else they maybe be permanently lost."
      }
    }
  }
}